:100000000C9449000C943A140C943A140C943A143D
:100010000C943A140C943A140C943A140C943A1428
:100020000C9408100C943A140C943A140C943A144E
:100030000C943A140C943A140C943A140C943A1408
:100040000C943A140C943A140C943A140C943A14F8
:100050000C943A140C943A140C943A140C943A14E8
:100060000C943A140C943A140C943A140C943A14D8
:100070000C943A140C943A140C943A140C943A14C8
:100080000C943A140C943A140C943A1401000104A0
:10009000800011241FBECFEFD0E1DEBFCDBFECE862
:1000A000F0E040E017C0B591A591359125910591FB
:1000B00007FD0CC095918591EF01F92FE82F059070
:1000C0000D92A217B307D9F7FE0104C01D92A21723
:1000D000B307E1F7E139F40731F70E943D050C94CD
:0600E000A813F894FFCF05
:1000E60057656C636F6D6520486F6D652C004D61BB
:1000F600737465720048756D616E2064657465631E
:100106007465642E004175746F2053776974636853
:10011600204F6E00526F6F6D2054656D703A20252A
:100126006420430046616E2053706565643A20255D
:10013600642525004E6F206F6E65206465746563C7
:100146007465642C004175746F2053776974636815
:10015600206F666600496E746572727570742064ED
:10016600657465637465642C004572726F7200492C
:100176006E76616C69642054656D70004C4544313F
:10018600005377697463686564204F6666004C4562
:100196004432004C4544330046616E73004C45447E
:1001A600312C204C454432004C4544312C204C45E2
:1001B600443300416C6C204C454473004C4544313B
:1001C6002C2046616E73004C4544322C2046616EED
:1001D60073004C4544332C2046616E73004C4544F5
:1001E600312C204C4544322C2046616E73004C4520
:1001F60044322C204C4544332C2046616E73004C0F
:100206004544312C204C4544332C2046616E730006
:100216005377697463686564204F666620616C6C09
:0F0226000046616E7320616E64204C4544730086
:1002350068076C094C836A9074A07AC0008068884E
:0602450000846C820081C0
:07024B00286E756C6C2900A0
:06025200286E696C290012
:10025800A3EAB0E0E2E3F1E00C9479124C01590111
:10026800C756DF4F488359836A83C959D040212C28
:10027800312C6E012BE8C20ED11C85E2782E2601A6
:1002880030E8632ECE018D569F4FC456DF4F9983B9
:100298008883CC59D0409C0140E8CF55DF4F288354
:1002A80039834A83C15AD040C756DF4F4881C9595C
:1002B800D040C656DF4F5881CA59D040C556DF4F87
:1002C8006881CB59D040FA01849167FD80818823E9
:1002D80009F4C9C3CF57DF4F19821882C158D040DB
:1002E8008FEF9FEFCD57DF4F99838883C358D04056
:1002F800CB57DF4F19821882C558D040A1E0B0E033
:10030800AC0FBD1FC957DF4FB983A883C758D0406A
:10031800E0E8F0E0C757DF4FF983E883C958D040D9
:10032800CA01A62FE12CF12CFC012491A7FD208104
:1003380021111BC0E114F10401F19701C4010E94CD
:10034800C210C756DF4F88819981AA81C959D04008
:100358008E0D9F1DA11DF7FCAA95C756DF4F8883F8
:100368009983AA83C959D04008C00196A11D253296
:1003780009F3FFEFEF1AFF0AD7CFC756DF4F88817F
:100388009981AA81C959D040FC012491A7FD2081F7
:10039800253209F056C39C014A2F2F5F3F4F4F4F1C
:1003A800C256DF4F288339834A83CE59D040C75677
:1003B800DF4F288339834A83C959D040C756DF4F56
:1003C80088819981AA81C959D040FC012491A7FD4F
:1003D80020812B3241F4CF57DF4F28813981C15812
:1003E800D04024600BC02C32CCF02D3259F5CF57B9
:1003F800DF4F28813981C158D0402160CF57DF4F66
:1004080039832883C158D0400196A11DC756DF4FB4
:1004180088839983AA83C959D040D0CF203241F428
:10042800CF57DF4F28813981C158D0402860E6CFA7
:10043800233291F4CF57DF4F28813981C158D040FA
:100448002061DCCF203341F4CF57DF4F2881398139
:10045800C158D0402260D2CF2A3299F50196A11D09
:10046800C756DF4F88839983AA83C959D040D501DD
:10047800ED91FC911197CF0102968D939C93808109
:100488009181CB57DF4F99838883C558D04097FF18
:100498003EC0CF57DF4F28813981C158D040B1E0E5
:1004A8002B27CF57DF4F39832883C158D0409195E8
:1004B80081959109CB57DF4F99838883C558D040E0
:1004C80026C0BC018A2F0E94C00FCB57DF4F9983EB
:1004D8008883C558D040C756DF4F288139814A8163
:1004E800C959D040F901849147FD8081082E000C3C
:1004F800990BC0970A9758F42F5F3F4F4F4FC75635
:10050800DF4F288339834A83C959D040E4CFCF5776
:10051800DF4F88819981C158D04080FF07C08D7F07
:10052800CF57DF4F99838883C158D040C756DF4FD4
:1005380088819981AA81C959D040FC012491A7FDDD
:1005480020812E3209F058C0CD57DF4F198218820A
:10055800C358D0409C014A2F2F5F3F4F4F4FC7567B
:10056800DF4F288339834A83C959D040F901549110
:1005780047FD50815A32D1F40296A11DC756DF4F6C
:1005880088839983AA83C959D040D501ED91FC91FC
:100598001197CF0102968D939C9380819181CD57BD
:1005A800DF4F99838883C358D04026C0842FB90170
:1005B8000E94C00FCD57DF4F99838883C358D0401E
:1005C800C756DF4F288139814A81C959D040F9017E
:1005D800849147FD8081082E000C990BC0970A97DB
:1005E80058F42F5F3F4F4F4FC756DF4F288339834B
:1005F8004A83C959D040E4CFCE0187569F4F0E9405
:10060800280F182FC756DF4F2881C959D040C65622
:10061800DF4F8881CA59D040C556DF4F9881CB59E2
:10062800D040E22FF82F849197FD8081082E000C8E
:10063800990B0E94E1138936910509F45AC0B4F464
:100648008336910509F466C144F48532910509F4AD
:10065800A1C18136910529F1B3C18436910509F408
:1006680048C0883691050CF42DC1AAC18037910580
:1006780009F4CBC04CF48E36910509F419C18F36B4
:10068800910509F47CC09CC18537910509F454C0D3
:100698008837910509F496C08337910509F090C110
:1006A80058C1612F70E0A501C6010E940112892B73
:1006B80009F4B7C1C756DF4F88819981AA81C95902
:1006C800D0409C014A2F2F5F3F4F4F4FC756DF4FF7
:1006D800288339834A83C959D040FC012491A7FD56
:1006E8002081A601BE016F577F4FC4010E943714B5
:1006F80095C1612F70E0950141E050E0C6010E946C
:10070800460A892B09F48DC1C756DF4F8881998124
:10071800AA81C959D0400196A11DC756DF4F8883C9
:100728009983AA83C959D040A601BE016F577F4F4C
:10073800C4010E94870972C1612F70E0950140E0F1
:1007480050E0C6010E94460A892B09F46AC1C756BF
:10075800DF4F88819981AA81C959D0400196A11D8E
:10076800C756DF4F88839983AA83C959D040A60109
:10077800BE016F577F4FC4010E942D0E4FC1612FDC
:1007880070E0950140E050E0C6010E94460A892BBE
:1007980009F447C1C756DF4F88819981AA81C95991
:1007A800D0400196A11DC756DF4F88839983AA833D
:1007B800C959D040A601BE016F577F4FC4010E949E
:1007C800010D2CC1612F70E0950140E050E0C60199
:1007D8000E94460A892B09F424C1C756DF4F888135
:1007E8009981AA81C959D0409C014A2F2F5F3F4F58
:1007F8004F4FC756DF4F288339834A83C959D040A2
:10080800FC012491A7FD20814BC0950140E050E0F8
:1008180060EF70E0C6010E94460A892B09F401C105
:10082800C756DF4F88819981AA81C959D04001965E
:10083800A11DC756DF4F88839983AA83C959D04021
:1008480086E022E532E040E0F901DE01AD56BF4F17
:10085800742F0E947813D6012C9111963C91119710
:1008680012964C91129713965C91139714966C916B
:10087800149715967C91159716968C91169717963E
:100888009C91A0E00E94911351F400E010E0CF5534
:10089800DF4F288139814A81C15AD040B9C028E741
:1008A800A601BE016F577F4FC4010E946607B6C0FC
:1008B800612F70E09501A1014E0D5F1DC6010E94D8
:1008C8002B0CAFC0612F70E0A501C6010E94011278
:1008D800892B09F4A6C0C756DF4F88819981AA8160
:1008E800C959D0409C014A2F2F5F3F4F4F4FC756E1
:1008F800DF4F288339834A83C959D040FC012491AA
:10090800A7FD2081A601BE016F577F4FC4010E9439
:10091800371484C0103809F084C0C756DF4F888167
:100928009981AA81C959D0400196A11DC756DF4FA8
:1009380088839983AA83C959D040D501ED91FC9148
:100948001197CF0102968D939C938081F601808345
:100958005BC0103809F065C0C756DF4F88819981A0
:10096800AA81C959D0400196A11DC756DF4F888377
:100978009983AA83C959D040D501ED91FC9111976B
:10098800CF0103968D939C9320813181428100E0B1
:1009980010E03EC0103809F044C0C756DF4F8881C8
:1009A8009981AA81C959D0400196A11DC756DF4F28
:1009B80088839983AA83C959D040F601708224C0DC
:1009C800D6017C92C256DF4F288139814A81CE599F
:1009D800D040C756DF4F288339834A83C959D0404E
:1009E800CF57DF4F19821882C158D040CB57DF4FFD
:1009F80019821882C558D0408FEF9FEFCD57DF4F2F
:100A080099838883C358D04001E010E0462D9201B5
:100A1800BE016F577F4FC4010E946B0D8E0D9F1D45
:100A280011C0C756DF4F88819981AA81C959D04022
:100A38000196A11DC756DF4F88839983AA83C95998
:100A4800D040C7017101E80EF91EE214F3044CF41A
:100A58008FE490E090930101809300018FEF9FEF66
:100A680003C0170121CCC101CD55DF4FE2E10C9441
:020A78009512D5
:100A7A000E9419140E949D130E94E9138CE00E949F
:100A8A0086100E942C140E94F01317BA8FEF88BBAD
:100A9A0078940E9425118739910508F001C286B31E
:100AAA008E3FF9F48EE085BB85E08BBB0E9428144B
:100ABA0060E080E00E94BD1362E871E080E00E947D
:100ACA00B01261E080E00E94BD1367E871E080E047
:100ADA000E94B01283ED90E30197F1F700C0000085
:100AEA00E6C186B38D3FF9F48DE085BB85E08BBB0B
:100AFA000E94281460E080E00E94BD1364E971E05E
:100B0A0080E00E94B01261E080E00E94BD1367E8B5
:100B1A0071E080E00E94B01283ED90E30197F1F753
:100B2A0000C00000C4C186B38B3FF9F48BE085BBDB
:100B3A0085E08BBB0E94281460E080E00E94BD1310
:100B4A0069E971E080E00E94B01261E080E00E94F1
:100B5A00BD1367E871E080E00E94B01283ED90E374
:100B6A000197F1F700C00000A2C186B3873F31F5B3
:100B7A008FE085BB1BBA0E9428140E94281460E0EB
:100B8A0080E00E94BD136EE971E080E00E94B0121D
:100B9A0061E080E00E94BD1367E871E080E00E9496
:100BAA00B01283ED90E30197F1F700C0000083EDE6
:100BBA0090E30197F1F700C0000079C186B38C3F3A
:100BCA00F9F48CE085BB85E08BBB0E94281460E0B9
:100BDA0080E00E94BD1363EA71E080E00E94B012D7
:100BEA0061E080E00E94BD1367E871E080E00E9446
:100BFA00B01283ED90E30197F1F700C0000057C1EE
:100C0A0086B38A3FF9F48AE085BB85E08BBB0E94F4
:100C1A00281460E080E00E94BD136EEA71E080E073
:100C2A000E94B01261E080E00E94BD1367E871E0A3
:100C3A0080E00E94B01283ED90E30197F1F700C0C3
:100C4A00000035C186B3893FF9F489E085BB85E0A8
:100C5A008BBB0E94281460E080E00E94BD136EEAFC
:100C6A0071E080E00E94B01261E080E00E94BD1352
:100C7A0067E871E080E00E94B01283ED90E301978B
:100C8A00F1F700C0000013C186B3883FF9F488E089
:100C9A0085BB85E08BBB0E94281460E080E00E943F
:100CAA00BD1367E871E080E00E94B01261E080E065
:100CBA000E94BD1369EB71E080E00E94B01283EDDF
:100CCA0090E30197F1F700C00000F1C086B3863FB8
:100CDA00F1F48EE085BB1BBA0E94281460E080E024
:100CEA000E94BD1367E871E080E00E94B01261E0E3
:100CFA0080E00E94BD1362EC71E080E00E94B012B5
:100D0A0083ED90E30197F1F700C00000D0C086B3ED
:100D1A00853FF1F48DE085BB1BBA0E94281460E080
:100D2A0080E00E94BD1367E871E080E00E94B01283
:100D3A0061E080E00E94BD136DEC71E080E00E94EA
:100D4A00B01283ED90E30197F1F700C00000AFC045
:100D5A0086B3833FF1F48BE085BB1BBA0E9428144B
:100D6A0060E080E00E94BD1367E871E080E00E94C5
:100D7A00B01261E080E00E94BD1368ED71E080E08E
:100D8A000E94B01283ED90E30197F1F700C00000D2
:100D9A008EC086B3843FF1F48CE085BB1BBA0E94F7
:100DAA00281460E080E00E94BD1367E871E080E0EB
:100DBA000E94B01261E080E00E94BD1363EE71E010
:100DCA0080E00E94B01283ED90E30197F1F700C032
:100DDA0000006DC086B3813FF1F489E085BB1BBA80
:100DEA000E94281460E080E00E94BD1367E871E069
:100DFA0080E00E94B01261E080E00E94BD1364EFBF
:100E0A0071E080E00E94B01283ED90E30197F1F760
:100E1A0000C000004CC086B3823FF1F48AE085BB73
:100E2A001BBA0E94281460E080E00E94BD1367E8A4
:100E3A0071E080E00E94B01261E080E00E94BD1380
:100E4A0065E072E080E00E94B01283ED90E30197C2
:100E5A00F1F700C000002BC086B3803FF1F488E0B0
:100E6A0085BB1BBA0E94281460E080E00E94BD1373
:100E7A0066E172E080E00E94B01261E080E00E94C8
:100E8A00BD1367E272E080E00E94B01283ED90E346
:100E9A000197F1F700C000000AC00E94A60807C027
:100EAA0080E185BB8BB3807F8BBB0E9421129FE9B7
:100EBA0026E881E0915020408040E1F700C0000020
:020ECA00E8CD71
:100ECC00A4E1B0E0ECE6F7E00C94791298878F83FC
:100EDC007A8369835C8B4B8B122FDB011296ED911D
:100EEC00FC91139714962D913C9115973E832D836D
:100EFC00ED90FC90119716962D903C901797F7FD5E
:100F0C0003C0E894E1F802C0E1E0F0E0C7018071B1
:100F1C0099279A878987E4FE1FC0AB89BC892C91DD
:100F2C0011963C91119712964C91129713965C91D5
:100F3C00139714966C91149715967C911597169699
:100F4C008C91169717969C91A0E00E94911321F01A
:100F5C008D819E81029702C08D819E8197012870A0
:100F6C0033273C872B87E3FC0197AB89BC894C90DA
:100F7C0011965C90119712966C90129713967C9028
:100F8C00139714968C90149715969C90159716960B
:100F9C00AC9016971796BC90A981BA811896CD90F3
:100FAC00DC901997B1E0CB1AD108D101AC0DBD1D65
:100FBC001C929C838B839F01281B390B3E872D87AA
:100FCC00C70182709927988B8F87812F012E000C77
:100FDC00990BDC01A154B109BA8BA98B32E0C31671
:100FEC00D10434F489859A85892B09F04CC073C0DF
:100FFC009201A301B401C501A0E00E94911381F1FB
:10100C00B1E0CB1AD108C2018F7099278A309105B3
:10101C0014F4C09602C0895A9F4FE989FA897A97CD
:10102C0048F49C012062215631092A31310510F413
:10103C000E94D013F101EC0DFD1D80832B813C81AE
:10104C00215031093C832B839201A301B401C501CA
:10105C0004E00E94411229013A014B015C01BECF10
:10106C008D859E85AB81BC818A0F9B1F1816190636
:10107C003CF21A161B060CF0B5CFEF85F889EF2B56
:10108C0009F0BECFAFCFAB89BC892C9111963C91A6
:10109C00119712964C91129713965C911397149684
:1010AC006C91149715967C91159716968C911697B2
:1010BC0017969C91A0E00E94911369F0F101EC0D40
:1010CC00FD1D31971083B2E0CB1AD108F101EC0D64
:1010DC00FD1D80E38083EB85FC85EF2B41F0F1E077
:1010EC00CF1AD108F101EC0DFD1D80E28083A9819E
:1010FC00BA8118962D913C911997215031092C19D0
:10110C003D09C20CD31CA60160E80D811E818F81A4
:10111C0098850E94A40B9C01EF81F88580819181B8
:10112C0090FF09C0A981BA8112968D919C91139759
:10113C00821793070CF4C9016496E2E10C949512A2
:10114C00CF92DF92EF92FF920E94E1118FE085BB6C
:10115C000E945D1280E00E946B13BC01990F880BFA
:10116C00990B0E944B1020E030E040E85AE30E94BB
:10117C00301420E030E04AEF53E40E9430146B014D
:10118C007C0120E030E040E251E40E941E1418166D
:10119C0044F01BBA11BE13BC109203011092020151
:1011AC00A4C020E030E040E351E4C701B6010E9446
:1011BC0023148823B4F020E030E040EA51E4C70166
:1011CC00B6010E941E14181664F085E08BBB84E6F1
:1011DC0081BF83BD89E190E090930301809302016C
:1011EC0084C020E030E048EA51E4C701B6010E9417
:1011FC0023148823B4F020E030E040EF51E4C70121
:10120C00B6010E941E14181664F085E08BBB8BE9A6
:10121C0081BF83BD82E390E0909303018093020130
:10122C0064C020E030E048EF51E4C701B6010E94F1
:10123C0023148823B4F020E030E040E252E4C701EC
:10124C00B6010E941E14181664F085E08BBB88EC66
:10125C0081BF83BD8BE490E09093030180930201E6
:10126C0044C020E030E044E252E4C701B6010E94E1
:10127C0023148823B4F020E030E048E452E4C701A2
:10128C00B6010E941E14181664F085E08BBB8FEF1C
:10129C0081BF83BD84E690E09093030180930201AB
:1012AC0024C01BBA11BE13BC109203011092020190
:1012BC000E94281460E080E00E94BD136FE671E08C
:1012CC0080E00E94B01261E080E00E94BD1365E7EF
:1012DC0071E080E00E94B0122FE986E891E0215085
:1012EC0080409040E1F700C00000C701B6010E94A9
:1012FC00F713CB010E94D00DFF90EF90DF90CF90B1
:02130C00089542
:10130E00ADE0B0E0EDE8F9E00C9479129A878987A8
:10131E007C836B83FA01DB011296CD90DC901397E0
:10132E0014968D919C9115979E838D83ED90FC90D4
:10133E001197FA82E98216960D90BC91A02DB8876E
:10134E00AF83208031804280538064807580868098
:10135E0097808101B42DF52DE62D7B868C869D869A
:10136E009101A201B301C401A0E00E9491134CF4BB
:10137E000E9431138901B42FF52FE62F7B878C87BE
:10138E009D87D7FC04C0E894E1F8FA82E9829101C6
:10139E00A201B301C401A0E0ED80FE800E94911372
:1013AE001CF0898182FF04C081E0E81AF10805C0B3
:1013BE0083FF03C091E0E91AF108CE0101965C01AA
:1013CE008AE0C82ED12C2B2F3F2F4E2F5B856C859C
:1013DE007D858B819C810E94FF0AFC019101A201F7
:1013EE00B301C401A0E00E9491131CF0898182FF19
:1013FE0012C031970F8118850E0F1F1F9101A20188
:10140E00B301C401A0E00E94911314F08BE201C05D
:10141E008DE2D80108C083FF07C03197AF81B88530
:10142E00AE0FBF1F80E28C93E980FA80AB81BC8146
:10143E0018962D913C911997215031092E1B3F0B77
:10144E008F819885E80FF91FAF0160E80D811E812D
:10145E0089859A850E94A40B9C01A985BA858D91D8
:10146E009C9190FF07C0EB81FC8182819381821752
:0E147E0093070CF4C9012D96E2E10C9495122F
:10148C000F931F93CF93DF93FC01D901683871053B
:10149C0031F194F461387105B1F12CF460387105B7
:1014AC0009F478C09FC06238710509F459C06438DA
:1014BC00710509F46FC096C0603A710509F448C013
:1014CC002CF46039710509F44BC08CC0603C71057B
:1014DC0009F476C0603F710509F472C083C0CD91E8
:1014EC00DC911197CE0102968D939C93452B39F08C
:1014FC009881892F880F880B908381835BC08881AA
:10150C008083118268C0CD91DC911197CE01049635
:10151C008D939C93452B99F088819981AA81BB81ED
:10152C00AC01BD01770F440B542FBA01808391831A
:10153C00A283B383448345834683478328C00881B1
:10154C0019812A813B81008311832283338345C017
:10155C00CD91DC911197CE0102968D939C9323C073
:10156C00CD91DC911197CE0108968D939C93788147
:10157C0069815A814B813C812D819E818F81708341
:10158C00618352834383348325839683878381E0ED
:10159C0090E02AC0CD91DC911197CE0102968D93EB
:1015AC009C93452BA1F099812881892F880F880B5A
:1015BC002083918382838383848385838683E6CF90
:1015CC00CD91DC911197CE0102968D939C9308815D
:1015DC001981008311831282138214821582168260
:1015EC001782D5CF80E090E0DF91CF911F910F91C2
:0215FC00089550
:1015FE00A2E1B0E0E5E0FBE00C947912FC010A8B6D
:10160E001B832C83732E642E552E462E7D83CC8603
:10161E00D886BF82AE82868197819B878A87D501C5
:10162E004D915C91228133818085918501971C01BA
:10163E0037FF02C021E030E0EA85FB85E80FF91F95
:10164E0010824701E1E0F0E0FA83E983C9018E19C7
:10165E009F099E878D87DA01A270BB27B88BAF8753
:10166E00B885BB0FBB0BB98B1214130474F0A98190
:10167E00BA81AB2B09F05CC0AE81BF818D919C917C
:10168E0011978F7E8D939C9353C02A893B814C81F9
:10169E00572D662D752D842D9D81A0E00E949113EE
:1016AE00B1F1E1E02E1A3108FC85F987AF2EB8842E
:1016BE00C988DC2CEC2CFC2C0C2D1C2D2A893B8192
:1016CE004C81572D662D752D842D9D810E945013B2
:1016DE00C90129839A83EA85FB85E20DF31D805D9E
:1016EE00808381E0881A91082A893B814C81572D8D
:1016FE00662D752D842D9D810E9452132A8B3B835E
:10170E004C83752E662E572E482E9D83ADCF8D851C
:10171E009E85880D991D181619061CF218141904A9
:10172E000CF0A5CFEF85F889EF2B09F0BACF9FCF3C
:0A173E00C1016296E2E10C949512DD
:101748002F923F924F926F927F928F92AF92BF9259
:10175800CF92DF92EF92FF920F931F93CF93DF9375
:10176800CDB7DEB766970FB6F894DEBF0FBECDBF14
:101778005C013A01862E6901C701817099279C8B0B
:101788008B8BE0FC1DC020173107D4F47801EC18CE
:10179800FD08FE8AED8AA70191E1E916F10410F02F
:1017A80040E150E060E270E0CE0101969A8B898BAF
:1017B8000E94C71389899A891C0120E8422E0BC010
:1017C8009601682DA301C5010E94C210C016D1065A
:1017D800ECF2C60125C090E1E916F10458F020E1C9
:1017E80030E0642DA101C5010E94C21080E1E81A11
:1017F800F108F1CF2D893E892F70332789899A897D
:10180800AC0160E8C5010E94C2108B899C89892BB4
:1018180031F49601682DA301C5010E94C210C801C8
:1018280066960FB6F894DEBF0FBECDBFDF91CF919D
:101838001F910F91FF90EF90DF90CF90BF90AF90E6
:0E1848008F907F906F904F903F902F9008955B
:10185600CF93DF93DC01F90164387105D9F164F4A3
:101866006138710521F16238710509F440C06038AC
:10187600710509F054C02EC060397105C1F184F4B8
:101886006838710509F04BC0C081D181CE0102963E
:1018960091838083E881F981ED93FC9340833CC07A
:1018A600603A7105B9F0603C7105A1F038C0C0819D
:1018B600D181CE01029691838083E881F981ED93EF
:1018C600FC93052E000C660B770B408351836283D5
:1018D600738322C0C081D181CE0102969183808319
:1018E600E881F981ED93FC935183408315C0C08153
:1018F600D181CE01029691838083E881F981ED93AF
:10190600FC9351834083852F880F880B82838383C2
:10191600848385838683878381E090E002C080E0AC
:0819260090E0DF91CF910895DC
:10192E000FC00E94051438F00E940C1420F095236D
:10193E0011F00C9413140C94341411240C94FF1302
:10194E000E94BF1170F3959FC1F3950F50E0551F84
:10195E00629FF001729FBB27F00DB11D639FAA27F6
:10196E00F00DB11DAA1F649F6627B00DA11D661F45
:10197E00829F2227B00DA11D621F739FB00DA11D66
:10198E00621F839FA00D611D221F749F3327A00D20
:10199E00611D231F849F600D211D822F762F6A2FBC
:1019AE0011249F5750409AF0F1F088234AF0EE0F21
:1019BE00FF1FBB1F661F771F881F91505040A9F74E
:1019CE009E3F510580F00C9413140C94FF135F3F4F
:1019DE00E4F3983ED4F3869577956795B795F7958A
:1019EE00E7959F5FC1F7FE2B880F911D9695879502
:0419FE0097F90895B8
:101A0200A2E0B0E0E7E0FDE00C9479121C014B018A
:101A1200FA01DB0112962D913C91139714964D9089
:101A22005C9015978D919C9111979A838983169654
:101A32006D907C90179737FD03C08D7F9A838983C1
:101A420000811181228133814481558166817781B0
:101A5200FE0131965F0188E0C82ED12C7201C401CB
:101A62000E94FF0A298124FF06C00197F301E80FB3
:101A7200F91F20E32083298123FF06C00197F30188
:101A8200E80FF91F20E22083E980FA80D40118963A
:101A92002D913C91199721503109281B390B860D44
:101AA200971DAC0160E88201C1010E94A40B9C0158
:101AB200F1018081918190FF08C0D40112968D912D
:101AC2009C911397821793070CF4C9012296E2E1C5
:041AD2000C949512C9
:101AD6002F923F924F926F927F928F92AF92BF92C8
:101AE600CF92DF92EF92FF920F931F93CF93DF93E4
:101AF600CDB7DEB727970FB6F894DEBF0FBECDBFC2
:101B06006C017B013901842E98018BE4282E82E03A
:101B1600382E80E0482E87E0F101AE014F5F5F4F1F
:101B2600DA01742D0E947813F70102811381A480D3
:101B3600B580E080F18061147104810419F43A01E2
:101B4600F0E88F2E2115310529F4882DB3010E9466
:101B5600E2129C0117FD04C00217130708F498014E
:101B66008501682DA301C6010E94A40B27960FB616
:101B7600F894DEBF0FBECDBFDF91CF911F910F91BD
:101B8600FF90EF90DF90CF90BF90AF908F907F90B7
:0A1B96006F904F903F902F9008953C
:101BA000CF92DF92EF920F931F93CF93DF93CDB736
:101BB000DEB760970FB6F894DEBF0FBECDBF182F0B
:101BC000092F0E9428140F931F938AE191E0A0E04F
:101BD000AF939F938F938E010F5F1F4F1F930F93B0
:101BE0000E940D13680120E8E22E8E2DB6010E949E
:101BF000B01261E080E00E94BD13809102019091DB
:101C000003019F938F938AE291E0A0E0AF939F93AB
:101C10008F931F930F930E940D138E2DB6010E9478
:101C2000B0128FE39DE023E0815090402040E1F727
:101C300000C000000FB6F894DEBF0FBECDBF6096A7
:101C40000FB6F894DEBF0FBECDBFDF91CF911F91CD
:0A1C50000F91EF90DF90CF90089500
:101C5A00A2E0B0E0E3E3FEE00C9479123C014B0110
:101C6A00FA01DB0112962D913C91139714964D902F
:101C7A005C9015978D919C9111979A8389831696FA
:101C8A002D903C90179737FD03C08D7F9A838983E7
:101C9A000081118122813381448155816681778156
:101CAA00FE0131965F018AE0C82ED12C7201C4016F
:101CBA000E94FF0AE980FA80D40118962D913C917E
:101CCA00199721503109281B390B820D931DAC013C
:101CDA0060E88201C3010E94A40B9C01F301808188
:101CEA00918190FF08C0D40112968D919C9113970F
:101CFA00821793070CF4C9012296E2E10C9495121B
:101D0A006F927F928F92EF92FF920F931F93CF93CE
:101D1A00DF93CDB7DEB761970FB6F894DEBF0FBE7B
:101D2A00CDBFFE01319651E1DF011D925A95E9F7C7
:101D3A00A2E0B1E0BA83A9839C838B8377FF09C0B1
:101D4A008FE490E090930101809300018FEF9FEF61
:101D5A0019C03901842E7C01615071097F836E8319
:101D6A009801682DA301CF010E94CA12488559859E
:101D7A002E813F814217530708F49A01F701E20FB7
:101D8A00F31F108261960FB6F894DEBF0FBECDBF67
:101D9A00DF91CF911F910F91FF90EF908F907F90DD
:041DAA006F90089599
:101DAE0088249924F401E401B0E49F93AA279A159C
:101DBE008B049C04ED05FE05CF05D007A10798F412
:101DCE00AD2FDC2FCF2FFE2FE92D982C892E982F9B
:101DDE00872F762F652F542F432F322F2227B8505F
:101DEE0031F7BF9127C01B2EBF91BB27220F331F88
:101DFE00441F551F661F771F881F991F881C991C2B
:101E0E00EE1FFF1FCC1FDD1FAA1FBB1F8A149B04D2
:101E1E00EC05FD05CE05DF05A007B10748F08A18D1
:101E2E009B08EC09FD09CE09DF09A00BB10B21605F
:101E3E001A94E1F62EF49401AF01BE01CD01000C0F
:021E4E000895F5
:101E5000CF92DF92EF92DC0190E0292F30E0220F49
:101E6000331F6901032E000CEE086E2DA6014B5C9A
:101E70005D4F6F4F6A01E62EFA018491E7FC808185
:101E800081110DC02F5F3F4F032E000C440B2B5CC4
:101E90003D4F4F4FF901849147FD808124C0CD9083
:101EA000DD90EC901297F6014491E7FC4081841399
:101EB00015C02F5F3F4F032E000C440B2B5C3D4F92
:101EC0004F4FF901949147FD90815FEFC51AD50AF4
:101ED000E50ACD92DD92EC92129701C09F5F9B3094
:0E1EE00008F4BBCF892FEF90DF90CF900895CC
:101EEE000F931F93CF93DF93DB012D913C911197AD
:101EFE0030FF25C017964D915C91189715962D9130
:101F0E003C9116974217530778F41296ED91FC9177
:101F1E001397808312962D913C9113972F5F3F4F0D
:101F2E0013963C932E93129717962D913C911897DA
:101F3E002F5F3F4F18963C932E93179715C01D9603
:101F4E00ED91FC911E97309719F48FEF9FEF0CC017
:101F5E008B01EC010995892BC1F7F80187819085DA
:101F6E00019690878783CE01DF91CF911F910F91BC
:021F7E000895C4
:101F8000CF939B01482FF901849147FD80818032D6
:101F9000C9F1682F082E000C770B69507109653064
:101FA000710580F18B3249F5A0E0B0E02F5F3F4F23
:101FB0004F4F02C0A0E0B0E080E090E0CAE0F9013D
:101FC000649147FD6081062E000C770B6053710908
:101FD0006A30710560F4C89FF001C99FF00D1124AB
:101FE0002F5F3F4F4F4FCF01861B970BE8CFAB2B97
:101FF00069F491958195910909C08D32D9F6A1E0D6
:10200000B0E0D4CF2F5F3F4F4F4FBDCFCF9108955A
:102010001F920F920FB60F9211242F933F934F935D
:102020005F936F937F938F939F93AF93BF93EF9340
:10203000FF930E94281460E080E00E94BD136BE5CE
:1020400071E080E00E94B01261E080E00E94BD1368
:102050006BE471E080E00E94B01215BA1BBA2FE366
:1020600082E49FE0215080409040E1F700C00000F2
:10207000FF91EF91BF91AF919F918F917F916F9160
:102080005F914F913F912F910F900FBE0F901F9036
:022090001895A1
:10209200E89409C097FB3EF4909580957095619500
:1020A2007F4F8F4F9F4F9923A9F0F92F96E9BB27B6
:1020B2009395F695879577956795B795F111F8CF32
:1020C200FAF4BB0F11F460FF1BC06F5F7F4F8F4F9D
:1020D2009F4F16C0882311F096E911C0772321F093
:1020E2009EE8872F762F05C0662371F096E8862F2B
:1020F20070E060E02AF09A95660F771F881FDAF782
:0A210200880F9695879597F90895C8
:10210C001F93CF93DF93182F81B38F6781BB80E030
:10211C009AEF0197F1F782B3826082BB82B3816040
:10212C0082BB0E94D91380E09EE40197F1F70E94D4
:10213C00D913C0E0D1E0CE010197F1F70E94D91379
:10214C00CE010197F1F782B38E7F82BB0E94D91327
:10215C002197F1F788E20E94B31388E00E94B31331
:10216C000E94281486E00E94B313812F0E94B3139F
:08217C00DF91CF911F9108953E
:102184006F927F928F92CF92DF92EF920F931F9371
:10219400CF93DF938C016A01E62EE9013A01862E82
:1021A400620E731E811C37FD8A94C614D704E8049A
:1021B40079F0F6018491E7FC8081B801082E000CC7
:1021C400990B0E94770F8FEFC81AD80AE80AEDCF4F
:1021D400CE01DF91CF911F910F91EF90DF90CF90BF
:0821E4008F907F906F90089529
:1021EC000E94C71188F09F5798F0B92F9927B751C3
:1021FC00B0F0E1F0660F771F881F991F1AF0BA959F
:10220C00C9F714C0B13091F00E94FE13B1E00895EB
:10221C000C94FE13672F782F8827B85F39F0B93FDD
:10222C00CCF3869577956795B395D9F73EF4909551
:0E223C008095709561957F4F8F4F9F4F08954D
:10224A008BB380648BBB83E08A95F1F700008BB374
:10225A008F7B8BBBCF9BFECF80E090E002C00196C4
:10226A000000CF99FCCF9C01220F331F880F991FC2
:10227A00880F991F880F991F280F391FABEABAEAEE
:10228A000E9441130024880F991F001C880F991F70
:08229A00001C892F902D08950E
:1022A200CF93DF93D82F662321F082B3806182BB64
:1022B20003C082B38F7E82BB82B38F7D82BB81B328
:1022C2008F6081BBC2B3C07F8D2F82958F708C2BA4
:1022D20082BB0E94D913DF70DC2BD2BB0E94D913C0
:0A22E200CF60C2BBDF91CF910895D9
:1022EC00882321F082B3806182BB03C082B38F7ECE
:1022FC0082BB82B3806282BB81B3807F81BB82B39D
:10230C00806482BB00C090B39295907F82B38F7B28
:10231C0082BB00C082B3806482BB00C080B38F706C
:0A232C0022B32F7B22BB892B0895FA
:10233600990F0008550FAA0BE0E8FEEF16161706D0
:10234600E807F907C0F012161306E407F50798F038
:10235600621B730B840B950B39F40A2661F0232B51
:10236600242B252B21F408950A2609F4A140A695CD
:082376008FEF811D811D089508
:10237E0057FD9058440F551F59F05F3F71F0479528
:10238E00880F97FB991F61F09F3F79F0879508950D
:10239E00121613061406551FF2CF4695F1DF08C02C
:1023AE00161617061806991FF1CF86957105610549
:0423BE0008940895E2
:1023C2000E94281460E080E00E94BD1366EE70E077
:1023D20080E00E94B01261E080E00E94BD1364EFD1
:1023E20070E080E00E94B0122FE78AE196E021506F
:1023F20080409040E1F700C000000E942814089538
:10240200FA0160387105CCF0623871051CF063384E
:10241200710599F4A081B1819D012C5F3F4F3183F9
:1024220020834D915D916D917C91FC01408351839C
:102432006283738381E090E0089580E090E00895E4
:102442000E94281460E080E00E94BD136AE371E0FC
:1024520080E00E94B01261E080E00E94BD136BE454
:1024620071E080E00E94B0122FE986E891E02150ED
:0C24720080409040E1F700C00000089599
:10247E0097FB10F8169400080F93083098F0085048
:10248E00232F342F452F562F672F782F892F902DDE
:10249E00F4CF0594979587957795679557954795BA
:0C24AE00379527950A95AAF70F9108951D
:1024BA0060E080E00E94BD136BEF70E080E00E9454
:1024CA00B01261E080E00E94BD136BE071E080E031
:1024DA000E94B0122FE38DE093E02150804090409B
:0824EA00E1F700C000000895B5
:1024F2002F923F924F925F926F927F928F929F9212
:10250200AF92BF92CF92DF92EF92FF920F931F93FF
:10251200CF93DF93CDB7DEB7CA1BDB0B0FB6F894B0
:08252200DEBF0FBECDBF09941E
:10252A002A88398848885F846E847D848C849B8459
:10253A00AA84B984C884DF80EE80FD800C811B8167
:10254A00AA81B981CE0FD11D0FB6F894DEBF0FBE96
:06255A00CDBFED01089564
:10256000CF92DF92EF92A82FCB0104C00E94F81205
:10257000AE2DC6016C01EA2E2FEFC21AD20AE20A72
:10258000FC018491A7FD80818111F0CFEF90DF9055
:04259000CF9008954B
:10259400A2E0B0E0E0EDF2E10C9487128C013A8302
:1025A40029839E012F5F3F4F0E942C01F801208157
:1025B40024FF02C08FEF9FEF2296E4E00C94A31255
:1025C400CF92DF92EF926B01E82EA82FCB01FC0192
:1025D4002491A7FD2081222319F00196A11DF7CF94
:0C25E4008C199D09EF90DF90CF900895B6
:1025F000CF93C82F0E945E13CA3049F4803410F480
:1026000080E401C080E080580E94B31304C061E000
:0A2610008C2F0E945111CF91089504
:10261A00A0E0B0E0E3E1F3E10C9489129E01265FA9
:10262A003F4F4F81588569858D819E810E94851310
:06263A00E2E00C94A51281
:10264000092E0394000C11F4882352F0BB0F40F4C0
:10265000BF2B11F460FF04C06F5F7F4F8F4F9F4F00
:022660000895DB
:1026620060957095809590953095409550952195FF
:102672003F4F4F4F5F4F6F4F7F4F8F4F9F4F089589
:10268200A29FB001B39FC001A39F700D811D1124B1
:0E269200911DB29F700D811D1124911D0895A0
:1026A000689401C0E8948F929F92CF93DF930E9429
:0C26B000D70EDF91CF919F908F9008957E
:1026BC0080E00E9476118823DCF388E090E001979B
:0A26CC00F1F780E00E9476110895F6
:1026D60097B1987F8770892B87B986B1806486B950
:0A26E6003699FECF84B195B1089536
:1026F000992777FD05C005900D920197E1F70895A0
:0A27000001900D920197E1F7089592
:10270A000F931F9389019A01462F6FEF7FE70E946B
:08271A00850E1F910F91089537
:102722000024A7FD00942A173005400550056005D6
:08273200700580059005089573
:10273A0083B7896683BF85B5896685BD8FEF8ABBF6
:06274A001BBA87BB0895D5
:10275000EC010E943F140E943E14CE010E944014DE
:06276000CE010E943C14B2
:10276600CF93C82F0E945E1360E08C2F0E945111F8
:04277600CF91089562
:10277A00611104C080580E94B313089580540E94C6
:04278A00B3130895E8
:10278E00FC01480F591FE417F50711F06193FBCFB9
:02279E0008959C
:1027A0009C01215631092A31310510F48F75992782
:0227B00008958A
:1027B20082B3806482BB00C082B38F7B82BB0895E8
:1027C2009C01215431092A31310508F480620895AF
:0E27D2008AB380648ABB8AB38F778ABB08956E
:0E27E0008AB7806C8ABF89B7806889BF089568
:0E27EE000E94F6106894B1110C94FF13089528
:0E27FC00E894BB2766277727CB0197F908954D
:0E280A0000240A9416161706180609060895EB
:0E28180000240A9412161306140605060895ED
:0C28260097F99F6780E870E060E008957B
:0A28320080E487B987E886B90895AD
:0A283C000E949B1108F481E008954A
:0A2846000E949B1108F48FEF089523
:0828500081E00E94B31308951A
:082858008FE184BB15BA08955D
:082860000E94970C0C94201358
:062868009FEF80EC0895D3
:06286E0080E090E00895F7
:042874000C940000C0
:042878000E94710049
:02287C000895BD
:02287E000895BB
:022880000895B9
:00000001FF
