:100000000C9449000C94CB130C94CB130C94CB138D
:100010000C94CB130C94CB130C94CB130C94CB13E8
:100020000C94920F0C94CB130C94CB130C94CB1315
:100030000C94CB130C94CB130C94CB130C94CB13C8
:100040000C94CB130C94CB130C94CB130C94CB13B8
:100050000C94CB130C94CB130C94CB130C94CB13A8
:100060000C94CB130C94CB130C94CB130C94CB1398
:100070000C94CB130C94CB130C94CB130C94CB1388
:100080000C94CB130C94CB130C94CB1301000104F0
:10009000800011241FBECFEFD0E1DEBFCDBFECE862
:1000A000F0E040E017C0B591A591359125910591FB
:1000B00007FD0CC095918591EF01F92FE82F059070
:1000C0000D92A217B307D9F7FE0104C01D92A21723
:1000D000B307E1F7E139F40731F70E9454050C94B6
:0600E0003613F894FFCF77
:1000E60057656C636F6D6520486F6D652C004D61BB
:1000F600737465720048756D616E2064657465631E
:100106007465642E004175746F2053776974636853
:10011600204F6E00526F6F6D2054656D703A20252A
:100126006420430046616E2053706565643A20255D
:10013600642525004E6F206F6E65206465746563C7
:100146007465642C004175746F2053776974636815
:10015600206F666600496E746572727570742064ED
:10016600657465637465642C00496E76616C6964B8
:100176002054656D70004C45443120537769746393
:10018600686564204F6666004C45443220537769A3
:100196007463686564204F6666004C45443320539B
:1001A60077697463686564204F66660046616E20F1
:1001B6005377697463686564204F6666004C4544EE
:1001C600312C204C4544320053776974636865646A
:1001D600204F6666004C4544312C204C4544330084
:1001E600416C6C204C454473004C4544312C2046F0
:1001F600616E73004C4544322C2046616E73004C90
:100206004544332C2046616E73004C4544312C2006
:100216004C4544322C2046616E73004C4544322CCA
:10022600204C4544332C2046616E73004C454431C6
:100236002C204C4544332C2046616E73005377695D
:100246007463686564204F666620616C6C00466165
:0C0256006E7320616E64204C4544730000
:1002620068076C094C836A9074A07AC00080688821
:0602720000846C82008193
:07027800286E756C6C290073
:06027F00286E696C2900E5
:10028600A3EAB0E0E9E4F1E00C9407124C0159014D
:10029600C756DF4F488359836A83C959D040212CFA
:1002A600312C6E012BE8C20ED11C85E2782E260178
:1002B60030E8632ECE018D569F4FC456DF4F99838B
:1002C6008883CC59D0409C0140E8CF55DF4F288326
:1002D60039834A83C15AD040C756DF4F4881C9592E
:1002E600D040C656DF4F5881CA59D040C556DF4F59
:1002F6006881CB59D040FA01849167FD80818823BB
:1003060009F4C9C3CF57DF4F19821882C158D040AC
:100316008FEF9FEFCD57DF4F99838883C358D04027
:10032600CB57DF4F19821882C558D040A1E0B0E004
:10033600AC0FBD1FC957DF4FB983A883C758D0403C
:10034600E0E8F0E0C757DF4FF983E883C958D040AB
:10035600CA01A62FE12CF12CFC012491A7FD2081D6
:1003660021111BC0E114F10401F19701C4010E949F
:100376005010C756DF4F88819981AA81C959D0404C
:100386008E0D9F1DA11DF7FCAA95C756DF4F8883CA
:100396009983AA83C959D04008C00196A11D253268
:1003A60009F3FFEFEF1AFF0AD7CFC756DF4F888151
:1003B6009981AA81C959D040FC012491A7FD2081C9
:1003C600253209F056C39C014A2F2F5F3F4F4F4FEE
:1003D600C256DF4F288339834A83CE59D040C75649
:1003E600DF4F288339834A83C959D040C756DF4F28
:1003F60088819981AA81C959D040FC012491A7FD21
:1004060020812B3241F4CF57DF4F28813981C158E3
:10041600D04024600BC02C32CCF02D3259F5CF578A
:10042600DF4F28813981C158D0402160CF57DF4F37
:1004360039832883C158D0400196A11DC756DF4F86
:1004460088839983AA83C959D040D0CF203241F4FA
:10045600CF57DF4F28813981C158D0402860E6CF79
:10046600233291F4CF57DF4F28813981C158D040CC
:100476002061DCCF203341F4CF57DF4F288139810B
:10048600C158D0402260D2CF2A3299F50196A11DDB
:10049600C756DF4F88839983AA83C959D040D501AF
:1004A600ED91FC911197CF0102968D939C938081DB
:1004B6009181CB57DF4F99838883C558D04097FFEA
:1004C6003EC0CF57DF4F28813981C158D040B1E0B7
:1004D6002B27CF57DF4F39832883C158D0409195BA
:1004E60081959109CB57DF4F99838883C558D040B2
:1004F60026C0BC018A2F0E944A0FCB57DF4F998333
:100506008883C558D040C756DF4F288139814A8134
:10051600C959D040F901849147FD8081082E000C0D
:10052600990BC0970A9758F42F5F3F4F4F4FC75606
:10053600DF4F288339834A83C959D040E4CFCF5748
:10054600DF4F88819981C158D04080FF07C08D7FD9
:10055600CF57DF4F99838883C158D040C756DF4FA6
:1005660088819981AA81C959D040FC012491A7FDAF
:1005760020812E3209F058C0CD57DF4F19821882DC
:10058600C358D0409C014A2F2F5F3F4F4F4FC7564D
:10059600DF4F288339834A83C959D040F9015491E2
:1005A60047FD50815A32D1F40296A11DC756DF4F3E
:1005B60088839983AA83C959D040D501ED91FC91CE
:1005C6001197CF0102968D939C9380819181CD578F
:1005D600DF4F99838883C358D04026C0842FB90142
:1005E6000E944A0FCD57DF4F99838883C358D04066
:1005F600C756DF4F288139814A81C959D040F90150
:10060600849147FD8081082E000C990BC0970A97AC
:1006160058F42F5F3F4F4F4FC756DF4F288339831C
:100626004A83C959D040E4CFCE0187569F4F0E94D6
:10063600B20E182FC756DF4F2881C959D040C6566B
:10064600DF4F8881CA59D040C556DF4F9881CB59B4
:10065600D040E22FF82F849197FD8081082E000C60
:10066600990B0E946F138936910509F45AC0B4F4A8
:100676008336910509F466C144F48532910509F47F
:10068600A1C18136910529F1B3C18436910509F4DA
:1006960048C0883691050CF42DC1AAC18037910552
:1006A60009F4CBC04CF48E36910509F419C18F3686
:1006B600910509F47CC09CC18537910509F454C0A5
:1006C6008837910509F496C08337910509F090C1E2
:1006D60058C1612F70E0A501C6010E948F11892BB8
:1006E60009F4B7C1C756DF4F88819981AA81C959D4
:1006F600D0409C014A2F2F5F3F4F4F4FC756DF4FC9
:10070600288339834A83C959D040FC012491A7FD27
:100716002081A601BE016F577F4FC4010E94C813F6
:1007260095C1612F70E0950141E050E0C6010E943D
:100736004009892B09F48DC1C756DF4F88819981FD
:10074600AA81C959D0400196A11DC756DF4F88839B
:100756009983AA83C959D040A601BE016F577F4F1E
:10076600C4010E94810872C1612F70E0950140E0CA
:1007760050E0C6010E944009892B09F46AC1C75698
:10078600DF4F88819981AA81C959D0400196A11D60
:10079600C756DF4F88839983AA83C959D040A601DB
:1007A600BE016F577F4FC4010E94B70D4FC1612F25
:1007B60070E0950140E050E0C6010E944009892B97
:1007C60009F447C1C756DF4F88819981AA81C95963
:1007D600D0400196A11DC756DF4F88839983AA830F
:1007E600C959D040A601BE016F577F4FC4010E9470
:1007F6008B0C2CC1612F70E0950140E050E0C601E2
:100806000E944009892B09F424C1C756DF4F88810D
:100816009981AA81C959D0409C014A2F2F5F3F4F29
:100826004F4FC756DF4F288339834A83C959D04073
:10083600FC012491A7FD20814BC0950140E050E0CA
:1008460060EF70E0C6010E944009892B09F401C1DE
:10085600C756DF4F88819981AA81C959D040019630
:10086600A11DC756DF4F88839983AA83C959D040F3
:1008760086E02FE732E040E0F901DE01AD56BF4FDA
:10088600742F0E940613D6012C9111963C91119754
:1008960012964C91129713965C91139714966C913D
:1008A600149715967C91159716968C911697179610
:1008B6009C91A0E00E941F1351F400E010E0CF5578
:1008C600DF4F288139814A81C15AD040B9C028E713
:1008D600A601BE016F577F4FC4010E944107B6C0F3
:1008E600612F70E09501A1014E0D5F1DC6010E94AA
:1008F600B50BAFC0612F70E0A501C6010E948F1134
:10090600892B09F4A6C0C756DF4F88819981AA8131
:10091600C959D0409C014A2F2F5F3F4F4F4FC756B2
:10092600DF4F288339834A83C959D040FC0124917B
:10093600A7FD2081A601BE016F577F4FC4010E940B
:10094600C81384C0103809F084C0C756DF4F8881A9
:100956009981AA81C959D0400196A11DC756DF4F7A
:1009660088839983AA83C959D040D501ED91FC911A
:100976001197CF0102968D939C938081F601808317
:100986005BC0103809F065C0C756DF4F8881998172
:10099600AA81C959D0400196A11DC756DF4F888349
:1009A6009983AA83C959D040D501ED91FC9111973D
:1009B600CF0103968D939C9320813181428100E083
:1009C60010E03EC0103809F044C0C756DF4F88819A
:1009D6009981AA81C959D0400196A11DC756DF4FFA
:1009E60088839983AA83C959D040F601708224C0AE
:1009F600D6017C92C256DF4F288139814A81CE5971
:100A0600D040C756DF4F288339834A83C959D0401F
:100A1600CF57DF4F19821882C158D040CB57DF4FCE
:100A260019821882C558D0408FEF9FEFCD57DF4F00
:100A360099838883C358D04001E010E0462D920187
:100A4600BE016F577F4FC4010E94F50C8E0D9F1D8E
:100A560011C0C756DF4F88819981AA81C959D040F4
:100A66000196A11DC756DF4F88839983AA83C9596A
:100A7600D040C7017101E80EF91EE214F3044CF4EC
:100A86008FE490E090930101809300018FEF9FEF38
:100A960003C0170121CCC101CD55DF4FE2E10C9413
:020AA600231219
:100AA8000E94AE130E942B130E9477138CE00E94C1
:100AB80014100E947E130E94851317BA8FEF88BB0B
:100AC80078940E94B310C39708F0C5C186B38E3FCF
:100AD80099F485B38E7F85BB85E08BBB0E94BD13DF
:100AE8006CE771E080E00E943E1283ED90E301978D
:100AF800F1F700C00000B7C186B38D3F99F485B304
:100B08008D7F85BB8FE08BBB0E94BD136EE871E0C3
:100B180080E00E943E1283ED90E30197F1F700C058
:100B28000000A1C186B38B3F99F485B38B7F85BB49
:100B380085E08BBB0E94BD1360EA71E080E00E94F3
:100B48003E1283ED90E30197F1F700C000008BC1DE
:100B580086B3873F79F41BBA0E94BD1362EB71E03C
:100B680080E00E943E1283ED90E30197F1F700C008
:100B7800000079C186B38C3FF9F484E085BB85E039
:100B88008BBB0E94BD1360E080E00E944B1363ECB6
:100B980071E080E00E943E1261E080E00E944B1309
:100BA8006EEC71E080E00E943E1283ED90E30197C5
:100BB800F1F700C0000057C186B38A3FF9F48AE014
:100BC80085BB85E08BBB0E94BD1360E080E00E947E
:100BD8004B136BED71E080E00E943E1261E080E013
:100BE8000E944B136EEC71E080E00E943E1283ED90
:100BF80090E30197F1F700C0000035C186B3893F43
:100C0800F9F489E085BB85E08BBB0E94BD1360E0E9
:100C180080E00E944B136BED71E080E00E943E1271
:100C280061E080E00E944B136EEC71E080E00E946E
:100C38003E1283ED90E30197F1F700C0000013C165
:100C480086B3883FF9F488E085BB85E08BBB0E94BA
:100C5800BD1360E080E00E944B136EEC71E080E011
:100C68000E943E1261E080E00E944B1366EE71E044
:100C780080E00E943E1283ED90E30197F1F700C0F7
:100C88000000F1C086B3863FF1F486E085BB1BBA4D
:100C98000E94BD1360E080E00E944B136EEC71E08F
:100CA80080E00E943E1261E080E00E944B136FEEEC
:100CB80071E080E00E943E1283ED90E30197F1F726
:100CC80000C00000D0C086B3853FF1F486E085BB44
:100CD8001BBA0E94BD1360E080E00E944B136EECCB
:100CE80071E080E00E943E1261E080E00E944B13B8
:100CF8006AEF71E080E00E943E1283ED90E3019775
:100D0800F1F700C00000AFC086B3833FF1F486E07E
:100D180085BB1BBA0E94BD1360E080E00E944B13A4
:100D28006EEC71E080E00E943E1261E080E00E947B
:100D38004B1365E072E080E00E943E1283ED90E381
:100D48000197F1F700C000008EC086B3843FF1F42C
:100D580084E085BB1BBA0E94BD1360E080E00E945E
:100D68004B136EEC71E080E00E943E1261E080E07F
:100D78000E944B1360E172E080E00E943E1283ED16
:100D880090E30197F1F700C000006DC086B3813F82
:100D9800F1F481E085BB1BBA0E94BD1360E080E0DE
:100DA8000E944B136EEC71E080E00E943E1261E0FD
:100DB80080E00E944B1361E272E080E00E943E12E4
:100DC80083ED90E30197F1F700C000004CC086B3B3
:100DD800823FF1F482E085BB1BBA0E94BD1360E03C
:100DE80080E00E944B136EEC71E080E00E943E129E
:100DF80061E080E00E944B1362E372E080E00E94B1
:100E08003E1283ED90E30197F1F700C000002BC07C
:100E180086B3803FE9F415BA1BBA0E94BD1360E09F
:100E280080E00E944B1363E472E080E00E943E126F
:100E380061E080E00E944B1364E572E080E00E946C
:100E48003E1283ED90E30197F1F700C000000BC05C
:100E58000E949E0A08C085B3887F85BB8BB3807FBC
:100E68008BBB0E94AF119FE926E881E0915020409A
:0A0E78008040E1F700C0000024CE26
:100E8200A4E1B0E0E7E4F7E00C94071298878F83BF
:100E92007A8369835C8B4B8B122FDB011296ED9167
:100EA200FC91139714962D913C9115973E832D83B7
:100EB200ED90FC90119716962D903C901797F7FDA8
:100EC20003C0E894E1F802C0E1E0F0E0C7018071FC
:100ED20099279A878987E4FE1FC0AB89BC892C9128
:100EE20011963C91119712964C91129713965C9120
:100EF200139714966C91149715967C9115971696E4
:100F02008C91169717969C91A0E00E941F1321F0D6
:100F12008D819E81029702C08D819E8197012870EA
:100F220033273C872B87E3FC0197AB89BC894C9024
:100F320011965C90119712966C90129713967C9072
:100F4200139714968C90149715969C901597169655
:100F5200AC9016971796BC90A981BA811896CD903D
:100F6200DC901997B1E0CB1AD108D101AC0DBD1DAF
:100F72001C929C838B839F01281B390B3E872D87F4
:100F8200C70182709927988B8F87812F012E000CC1
:100F9200990BDC01A154B109BA8BA98B32E0C316BB
:100FA200D10434F489859A85892B09F04CC073C029
:100FB2009201A301B401C501A0E00E941F1381F1B7
:100FC200B1E0CB1AD108C2018F7099278A309105FE
:100FD20014F4C09602C0895A9F4FE989FA897A9718
:100FE20048F49C012062215631092A31310510F45E
:100FF2000E945E13F101EC0DFD1D80832B813C816B
:10100200215031093C832B839201A301B401C50114
:1010120004E00E94CF1129013A014B015C01BECFCD
:101022008D859E85AB81BC818A0F9B1F1816190680
:101032003CF21A161B060CF0B5CFEF85F889EF2BA0
:1010420009F0BECFAFCFAB89BC892C9111963C91F0
:10105200119712964C91129713965C9113971496CE
:101062006C91149715967C91159716968C911697FC
:1010720017969C91A0E00E941F1369F0F101EC0DFC
:10108200FD1D31971083B2E0CB1AD108F101EC0DAE
:10109200FD1D80E38083EB85FC85EF2B41F0F1E0C1
:1010A200CF1AD108F101EC0DFD1D80E28083A981E8
:1010B200BA8118962D913C911997215031092C191A
:1010C2003D09C20CD31CA60160E80D811E818F81EF
:1010D20098850E942E0B9C01EF81F8858081918179
:1010E20090FF09C0A981BA8112968D919C911397A4
:1010F200821793070CF4C9016496E2E10C9423125F
:10110200ADE0B0E0E7E8F8E00C9407129A8789872F
:101112007C836B83FA01DB011296CD90DC901397EE
:1011220014968D919C9115979E838D83ED90FC90E2
:101132001197FA82E98216960D90BC91A02DB8877C
:10114200AF832080318042805380648075808680A6
:1011520097808101B42DF52DE62D7B868C869D86A8
:101162009101A201B301C401A0E00E941F134CF43B
:101172000E94BF128901B42FF52FE62F7B878C873F
:101182009D87D7FC04C0E894E1F8FA82E9829101D4
:10119200A201B301C401A0E0ED80FE800E941F13F2
:1011A2001CF0898182FF04C081E0E81AF10805C0C1
:1011B20083FF03C091E0E91AF108CE0101965C01B8
:1011C2008AE0C82ED12C2B2F3F2F4E2F5B856C85AA
:1011D2007D858B819C810E94F909FC019101A2010C
:1011E200B301C401A0E00E941F131CF0898182FF99
:1011F20012C031970F8118850E0F1F1F9101A20196
:10120200B301C401A0E00E941F1314F08BE201C0DD
:101212008DE2D80108C083FF07C03197AF81B8853E
:10122200AE0FBF1F80E28C93E980FA80AB81BC8154
:1012320018962D913C911997215031092E1B3F0B85
:101242008F819885E80FF91FAF0160E80D811E813B
:1012520089859A850E942E0B9C01A985BA858D915C
:101262009C9190FF07C0EB81FC8182819381821760
:0E12720093070CF4C9012D96E2E10C942312AF
:101280000F931F93CF93DF93FC01D9016838710549
:1012900031F194F461387105B1F12CF460387105C5
:1012A00009F478C09FC06238710509F459C06438E8
:1012B000710509F46FC096C0603A710509F448C021
:1012C0002CF46039710509F44BC08CC0603C710589
:1012D00009F476C0603F710509F472C083C0CD91F6
:1012E000DC911197CE0102968D939C93452B39F09A
:1012F0009881892F880F880B908381835BC08881B8
:101300008083118268C0CD91DC911197CE01049643
:101310008D939C93452B99F088819981AA81BB81FB
:10132000AC01BD01770F440B542FBA018083918328
:10133000A283B383448345834683478328C00881BF
:1013400019812A813B81008311832283338345C025
:10135000CD91DC911197CE0102968D939C9323C081
:10136000CD91DC911197CE0108968D939C93788155
:1013700069815A814B813C812D819E818F8170834F
:10138000618352834383348325839683878381E0FB
:1013900090E02AC0CD91DC911197CE0102968D93F9
:1013A0009C93452BA1F099812881892F880F880B68
:1013B0002083918382838383848385838683E6CF9E
:1013C000CD91DC911197CE0102968D939C9308816B
:1013D000198100831183128213821482158216826E
:1013E0001782D5CF80E090E0DF91CF911F910F91D0
:0213F00008955E
:1013F200A2E1B0E0EFEFF9E00C940712FC010A8BD6
:101402001B832C83732E642E552E462E7D83CC8611
:10141200D886BF82AE82868197819B878A87D501D3
:101422004D915C91228133818085918501971C01C8
:1014320037FF02C021E030E0EA85FB85E80FF91FA3
:1014420010824701E1E0F0E0FA83E983C9018E19D5
:101452009F099E878D87DA01A270BB27B88BAF8761
:10146200B885BB0FBB0BB98B1214130474F0A9819E
:10147200BA81AB2B09F05CC0AE81BF818D919C918A
:1014820011978F7E8D939C9353C02A893B814C8107
:10149200572D662D752D842D9D81A0E00E941F136E
:1014A200B1F1E1E02E1A3108FC85F987AF2EB8843C
:1014B200C988DC2CEC2CFC2C0C2D1C2D2A893B81A0
:1014C2004C81572D662D752D842D9D810E94DE1233
:1014D200C90129839A83EA85FB85E20DF31D805DAC
:1014E200808381E0881A91082A893B814C81572D9B
:1014F200662D752D842D9D810E94E0122A8B3B83DF
:101502004C83752E662E572E482E9D83ADCF8D852A
:101512009E85880D991D181619061CF218141904B7
:101522000CF0A5CFEF85F889EF2B09F0BACF9FCF4A
:0A153200C1016296E2E10C9423125D
:10153C00CF92DF92EF92FF920E946F1185B387607A
:10154C0085BB0E94EB1180E00E94F912BC01990F3F
:10155C00880B990B0E94D90F20E030E040E85AE349
:10156C000E94C11320E030E04AEF53E40E94C11303
:10157C006B017C0120E030E040EA51E40E94B3139F
:10158C00181644F01BBA11BE13BC10920301109232
:10159C00020152C020E030E048EA51E4C701B60134
:1015AC000E94B8138823B4F020E030E040EF51E4FF
:1015BC00C701B6010E94B313181664F085E08BBB0B
:1015CC008BE981BF83BD82E390E09093030180930C
:1015DC00020132C020E030E048EF51E4C701B6010F
:1015EC000E94B8138823B4F020E030E048E452E4C1
:1015FC00C701B6010E94B313181664F085E08BBBCB
:10160C008FEF81BF83BD84E690E0909303018093BC
:10161C00020112C01BBA11BE13BC1092030110922E
:10162C0002010E94BD1360E080E00E944B136FE644
:10163C0071E080E00E943E12C701B6010E948C133B
:10164C00CB010E945A0DFF90EF90DF90CF90089540
:10165C002F923F924F926F927F928F92AF92BF9246
:10166C00CF92DF92EF92FF920F931F93CF93DF9362
:10167C00CDB7DEB766970FB6F894DEBF0FBECDBF01
:10168C005C013A01862E6901C701817099279C8BF8
:10169C008B8BE0FC1DC020173107D4F47801EC18BB
:1016AC00FD08FE8AED8AA70191E1E916F10410F01C
:1016BC0040E150E060E270E0CE0101969A8B898B9C
:1016CC000E94551389899A891C0120E8422E0BC06F
:1016DC009601682DA301C5010E945010C016D106B9
:1016EC00ECF2C60125C090E1E916F10458F020E1B6
:1016FC0030E0642DA101C5010E94501080E1E81A70
:10170C00F108F1CF2D893E892F70332789899A8969
:10171C00AC0160E8C5010E9450108B899C89892B13
:10172C0031F49601682DA301C5010E945010C80127
:10173C0066960FB6F894DEBF0FBECDBFDF91CF918A
:10174C001F910F91FF90EF90DF90CF90BF90AF90D3
:0E175C008F907F906F904F903F902F90089548
:10176A00CF93DF93DC01F90164387105D9F164F490
:10177A006138710521F16238710509F440C0603899
:10178A00710509F054C02EC060397105C1F184F4A5
:10179A006838710509F04BC0C081D181CE0102962B
:1017AA0091838083E881F981ED93FC9340833CC067
:1017BA00603A7105B9F0603C7105A1F038C0C0818A
:1017CA00D181CE01029691838083E881F981ED93DC
:1017DA00FC93052E000C660B770B408351836283C2
:1017EA00738322C0C081D181CE0102969183808306
:1017FA00E881F981ED93FC935183408315C0C08140
:10180A00D181CE01029691838083E881F981ED939B
:10181A00FC9351834083852F880F880B82838383AF
:10182A00848385838683878381E090E002C080E099
:08183A0090E0DF91CF910895C9
:101842000FC00E949A1338F00E94A11320F0952332
:1018520011F00C94A8130C94C51311240C94941336
:101862000E944D1170F3959FC1F3950F50E0551FE3
:10187200629FF001729FBB27F00DB11D639FAA27E3
:10188200F00DB11DAA1F649F6627B00DA11D661F32
:10189200829F2227B00DA11D621F739FB00DA11D53
:1018A200621F839FA00D611D221F749F3327A00D0D
:1018B200611D231F849F600D211D822F762F6A2FA9
:1018C20011249F5750409AF0F1F088234AF0EE0F0E
:1018D200FF1FBB1F661F771F881F91505040A9F73B
:1018E2009E3F510580F00C94A8130C9494135F3F13
:1018F200E4F3983ED4F3869577956795B795F79577
:10190200E7959F5FC1F7FE2B880F911D96958795EE
:0419120097F90895A4
:10191600A2E0B0E0E1E9FCE00C9407121C014B01E7
:10192600FA01DB0112962D913C91139714964D9076
:101936005C9015978D919C9111979A838983169641
:101946006D907C90179737FD03C08D7F9A838983AE
:10195600008111812281338144815581668177819D
:10196600FE0131965F0188E0C82ED12C7201C401B8
:101976000E94F909298124FF06C00197F301E80FA7
:10198600F91F20E32083298123FF06C00197F30175
:10199600E80FF91F20E22083E980FA80D401189627
:1019A6002D913C91199721503109281B390B860D31
:1019B600971DAC0160E88201C1010E942E0B9C01BB
:1019C600F1018081918190FF08C0D40112968D911A
:1019D6009C911397821793070CF4C9012296E2E1B2
:0419E6000C94231228
:1019EA002F923F924F926F927F928F92AF92BF92B5
:1019FA00CF92DF92EF92FF920F931F93CF93DF93D1
:101A0A00CDB7DEB727970FB6F894DEBF0FBECDBFAE
:101A1A006C017B013901842E980188E7282E82E027
:101A2A00382E80E0482E87E0F101AE014F5F5F4F0C
:101A3A00DA01742D0E940613F70102811381A48032
:101A4A00B580E080F18061147104810419F43A01CF
:101A5A00F0E88F2E2115310529F4882DB3010E9453
:101A6A0070129C0117FD04C00217130708F49801AD
:101A7A008501682DA301C6010E942E0B27960FB679
:101A8A00F894DEBF0FBECDBFDF91CF911F910F91AA
:101A9A00FF90EF90DF90CF90BF90AF908F907F90A4
:0A1AAA006F904F903F902F90089529
:101AB400CF92DF92EF920F931F93CF93DF93CDB723
:101AC400DEB760970FB6F894DEBF0FBECDBF182FF8
:101AD400092F0E94BD130F931F938AE191E0A0E0A8
:101AE400AF939F938F938E010F5F1F4F1F930F939D
:101AF4000E949B12680120E8E22E8E2DB6010E94FE
:101B04003E1261E080E00E944B13809102019091AB
:101B140003019F938F938AE291E0A0E0AF939F9398
:101B24008F931F930F930E949B128E2DB6010E94D8
:101B34003E128FE39DE023E0815090402040E1F786
:101B440000C000000FB6F894DEBF0FBECDBF609694
:101B54000FB6F894DEBF0FBECDBFDF91CF911F91BA
:0A1B64000F91EF90DF90CF900895ED
:101B6E00A2E0B0E0EDEBFDE00C9407123C014B015E
:101B7E00FA01DB0112962D913C91139714964D901C
:101B8E005C9015978D919C9111979A8389831696E7
:101B9E002D903C90179737FD03C08D7F9A838983D4
:101BAE000081118122813381448155816681778143
:101BBE00FE0131965F018AE0C82ED12C7201C4015C
:101BCE000E94F909E980FA80D40118962D913C9172
:101BDE00199721503109281B390B820D931DAC0129
:101BEE0060E88201C3010E942E0B9C01F3018081EB
:101BFE00918190FF08C0D40112968D919C911397FC
:101C0E00821793070CF4C9012296E2E10C94231279
:101C1E006F927F928F92EF92FF920F931F93CF93BB
:101C2E00DF93CDB7DEB761970FB6F894DEBF0FBE68
:101C3E00CDBFFE01319651E1DF011D925A95E9F7B4
:101C4E00A2E0B1E0BA83A9839C838B8377FF09C09E
:101C5E008FE490E090930101809300018FEF9FEF4E
:101C6E0019C03901842E7C01615071097F836E8306
:101C7E009801682DA301CF010E94581248855985FD
:101C8E002E813F814217530708F49A01F701E20FA4
:101C9E00F31F108261960FB6F894DEBF0FBECDBF54
:101CAE00DF91CF911F910F91FF90EF908F907F90CA
:041CBE006F90089586
:101CC20088249924F401E401B0E49F93AA279A1589
:101CD2008B049C04ED05FE05CF05D007A10798F4FF
:101CE200AD2FDC2FCF2FFE2FE92D982C892E982F88
:101CF200872F762F652F542F432F322F2227B8504C
:101D020031F7BF9127C01B2EBF91BB27220F331F74
:101D1200441F551F661F771F881F991F881C991C17
:101D2200EE1FFF1FCC1FDD1FAA1FBB1F8A149B04BF
:101D3200EC05FD05CE05DF05A007B10748F08A18BE
:101D42009B08EC09FD09CE09DF09A00BB10B21604C
:101D52001A94E1F62EF49401AF01BE01CD01000CFC
:021D62000895E2
:101D6400CF92DF92EF92DC0190E0292F30E0220F36
:101D7400331F6901032E000CEE086E2DA6014E5987
:101D84005D4F6F4F6A01E62EFA018491E7FC808172
:101D940081110DC02F5F3F4F032E000C440B2E59B1
:101DA4003D4F4F4FF901849147FD808124C0CD9070
:101DB400DD90EC901297F6014491E7FC4081841386
:101DC40015C02F5F3F4F032E000C440B2E593D4F7F
:101DD4004F4FF901949147FD90815FEFC51AD50AE1
:101DE400E50ACD92DD92EC92129701C09F5F9B3081
:0E1DF40008F4BBCF892FEF90DF90CF900895B9
:101E02000F931F93CF93DF93DB012D913C91119799
:101E120030FF25C017964D915C91189715962D911C
:101E22003C9116974217530778F41296ED91FC9164
:101E32001397808312962D913C9113972F5F3F4FFA
:101E420013963C932E93129717962D913C911897C7
:101E52002F5F3F4F18963C932E93179715C01D96F0
:101E6200ED91FC911E97309719F48FEF9FEF0CC004
:101E72008B01EC010995892BC1F7F80187819085C7
:101E8200019690878783CE01DF91CF911F910F91A9
:021E92000895B1
:101E9400CF939B01482FF901849147FD80818032C3
:101EA400C9F1682F082E000C770B69507109653051
:101EB400710580F18B3249F5A0E0B0E02F5F3F4F10
:101EC4004F4F02C0A0E0B0E080E090E0CAE0F9012A
:101ED400649147FD6081062E000C770B60537109F5
:101EE4006A30710560F4C89FF001C99FF00D112498
:101EF4002F5F3F4F4F4FCF01861B970BE8CFAB2B84
:101F040069F491958195910909C08D32D9F6A1E0C2
:101F1400B0E0D4CF2F5F3F4F4F4FBDCFCF91089547
:101F24001F920F920FB60F9211242F933F934F934A
:101F34005F936F937F938F939F93AF93BF93EF932D
:101F4400FF930E94BD1360E080E00E944B136BE599
:101F540071E080E00E943E1261E080E00E944B1339
:101F64006BE471E080E00E943E1285B3887F85BBFC
:101F74008BB3807F8BBB2FE382E49FE021508040B2
:101F84009040E1F700C00000FF91EF91BF91AF9145
:101F94009F918F917F916F915F914F913F912F917D
:0A1FA4000F900FBE0F901F901895CC
:101FAE00E89409C097FB3EF49095809570956195E5
:101FBE007F4F8F4F9F4F9923A9F0F92F96E9BB279B
:101FCE009395F695879577956795B795F111F8CF17
:101FDE00FAF4BB0F11F460FF1BC06F5F7F4F8F4F82
:101FEE009F4F16C0882311F096E911C0772321F078
:101FFE009EE8872F762F05C0662371F096E8862F10
:10200E0070E060E02AF09A95660F771F881FDAF766
:0A201E00880F9695879597F90895AD
:102028001F93CF93DF93182F81B38F6781BB80E015
:102038009AEF0197F1F782B3826082BB82B3816025
:1020480082BB0E94671380E09EE40197F1F70E942B
:102058006713C0E0D1E0CE010197F1F70E94671342
:10206800CE010197F1F782B38E7F82BB0E9467137E
:102078002197F1F788E20E94411388E00E944113FA
:102088000E94BD1386E00E944113812F0E944113D4
:08209800DF91CF911F91089523
:1020A0006F927F928F92CF92DF92EF920F931F9356
:1020B000CF93DF938C016A01E62EE9013A01862E67
:1020C000620E731E811C37FD8A94C614D704E8047F
:1020D00079F0F6018491E7FC8081B801082E000CAC
:1020E000990B0E94010F8FEFC81AD80AE80AEDCFAA
:1020F000CE01DF91CF911F910F91EF90DF90CF90A4
:082100008F907F906F9008950D
:102108000E94551188F09F5798F0B92F9927B75119
:10211800B0F0E1F0660F771F881F991F1AF0BA9583
:10212800C9F714C0B13091F00E949313B1E008953B
:102138000C949313672F782F8827B85F39F0B93F2D
:10214800CCF3869577956795B395D9F73EF4909536
:0E2158008095709561957F4F8F4F9F4F089532
:102166008BB380648BBB83E08A95F1F700008BB359
:102176008F7B8BBBCF9BFECF80E090E002C00196A9
:102186000000CF99FCCF9C01220F331F880F991FA7
:10219600880F991F880F991F280F391FABEABAEAD3
:1021A6000E94CF120024880F991F001C880F991FC8
:0821B600001C892F902D0895F3
:1021BE00CF93DF93D82F662321F082B3806182BB49
:1021CE0003C082B38F7E82BB82B38F7D82BB81B30D
:1021DE008F6081BBC2B3C07F8D2F82958F708C2B89
:1021EE0082BB0E946713DF70DC2BD2BB0E94671389
:0A21FE00CF60C2BBDF91CF910895BE
:10220800882321F082B3806182BB03C082B38F7EB2
:1022180082BB82B3806282BB81B3807F81BB82B381
:10222800806482BB00C090B39295907F82B38F7B0D
:1022380082BB00C082B3806482BB00C080B38F7051
:0A22480022B32F7B22BB892B0895DF
:10225200990F0008550FAA0BE0E8FEEF16161706B5
:10226200E807F907C0F012161306E407F50798F01D
:10227200621B730B840B950B39F40A2661F0232B36
:10228200242B252B21F408950A2609F4A140A695B2
:082292008FEF811D811D0895ED
:10229A0057FD9058440F551F59F05F3F71F047950D
:1022AA00880F97FB991F61F09F3F79F087950895F2
:1022BA00121613061406551FF2CF4695F1DF08C011
:1022CA00161617061806991FF1CF8695710561052E
:0422DA0008940895C7
:1022DE000E94BD1360E080E00E944B1366EE70E03A
:1022EE0080E00E943E1261E080E00E944B1364EF9A
:1022FE0070E080E00E943E122FE78AE196E02150C6
:10230E0080409040E1F700C000000E94BD13089588
:10231E00FA0160387105CCF0623871051CF0633833
:10232E00710599F4A081B1819D012C5F3F4F3183DE
:10233E0020834D915D916D917C91FC014083518381
:10234E006283738381E090E0089580E090E00895C9
:10235E000E94BD1360E080E00E944B136AE371E0BF
:10236E0080E00E943E1261E080E00E944B136BE41D
:10237E0071E080E00E943E122FE986E891E0215044
:0C238E0080409040E1F700C0000008957E
:10239A0097FB10F8169400080F93083098F008502D
:1023AA00232F342F452F562F672F782F892F902DC3
:1023BA00F4CF05949795879577956795579547959F
:0C23CA00379527950A95AAF70F91089502
:1023D60060E080E00E944B136BEF70E080E00E94AB
:1023E6003E1261E080E00E944B136BE071E080E0FA
:1023F6000E943E122FE38DE093E0215080409040F2
:08240600E1F700C00000089599
:10240E002F923F924F925F926F927F928F929F92F6
:10241E00AF92BF92CF92DF92EF92FF920F931F93E4
:10242E00CF93DF93CDB7DEB7CA1BDB0B0FB6F89495
:08243E00DEBF0FBECDBF099403
:102446002A88398848885F846E847D848C849B843E
:10245600AA84B984C884DF80EE80FD800C811B814C
:10246600AA81B981CE0FD11D0FB6F894DEBF0FBE7B
:06247600CDBFED01089549
:10247C00CF92DF92EF92A82FCB0104C00E9486125C
:10248C00AE2DC6016C01EA2E2FEFC21AD20AE20A57
:10249C00FC018491A7FD80818111F0CFEF90DF903A
:0424AC00CF90089530
:1024B000A2E0B0E0EEE5F2E10C9415128C013A8353
:1024C00029839E012F5F3F4F0E944301F801208125
:1024D00024FF02C08FEF9FEF2296E4E00C943112AC
:1024E000CF92DF92EF926B01E82EA82FCB01FC0177
:1024F0002491A7FD2081222319F00196A11DF7CF79
:0C2500008C199D09EF90DF90CF9008959A
:10250C00CF93C82F0E94EC12CA3049F4803410F4D7
:10251C0080E401C080E080580E94411304C061E057
:0A252C008C2F0E94DF10CF9108955C
:10253600A0E0B0E0E1EAF2E10C9417129E01265FFA
:102546003F4F4F81588569858D819E810E94131367
:06255600E2E00C943312D8
:10255C00092E0394000C11F4882352F0BB0F40F4A5
:10256C00BF2B11F460FF04C06F5F7F4F8F4F9F4FE5
:02257C000895C0
:10257E0060957095809590953095409550952195E4
:10258E003F4F4F4F5F4F6F4F7F4F8F4F9F4F08956E
:10259E00A29FB001B39FC001A39F700D811D112496
:0E25AE00911DB29F700D811D1124911D089585
:1025BC00689401C0E8948F929F92CF93DF930E940E
:0C25CC00610EDF91CF919F908F900895D9
:1025D80080E00E9404118823DCF388E090E00197F2
:0A25E800F1F780E00E94041108954D
:1025F20097B1987F8770892B87B986B1806486B935
:0A2602003699FECF84B195B108951A
:10260C00992777FD05C005900D920197E1F7089584
:0A261C0001900D920197E1F7089577
:102626000F931F9389019A01462F6FEF7FE70E9450
:082636000F0E1F910F91089592
:10263E000024A7FD00942A173005400550056005BB
:08264E00700580059005089558
:1026560083B7896683BF85B5896685BD8FEF8ABBDB
:062666001BBA87BB0895BA
:10266C00EC010E94D0130E94CF13CE010E94D11313
:06267C00CE010E94CD1307
:10268200CF93C82F0E94EC1260E08C2F0E94DF10C3
:04269200CF91089547
:10269600611104C080580E944113089580540E941D
:0426A600411308953F
:1026AA00FC01480F591FE417F50711F06193FBCF9E
:0226BA00089581
:1026BC009C01215631092A31310510F48F75992767
:0226CC0008956F
:1026CE0082B3806482BB00C082B38F7B82BB0895CD
:1026DE009C01215431092A31310508F48062089594
:0E26EE008AB380648ABB8AB38F778ABB089553
:0E26FC0084B3876084BB85B3887F85BB089557
:0E270A008AB7806C8ABF89B7806889BF08953E
:0E2718000E9484106894B1110C9494130895DB
:0E272600E894BB2766277727CB0197F9089523
:0E27340000240A9416161706180609060895C2
:0E27420000240A9412161306140605060895C4
:0C27500097F99F6780E870E060E0089552
:0A275C0080E487B987E886B9089584
:0A2766000E94291108F481E0089593
:0A2770000E94291108F48FEF08956C
:08277A0081E00E944113089563
:082782000E94210C0C94AE1220
:06278A009FEF80EC0895B2
:0627900080E090E00895D6
:042796000C9400009F
:04279A000E94710028
:02279E0008959C
:0227A00008959A
:0227A200089598
:00000001FF
