:100000000C9449000C944E0E0C944E0E0C944E0E13
:100010000C944E0E0C944E0E0C944E0E0C944E0EF0
:100020000C944E0E0C944E0E0C944E0E0C944E0EE0
:100030000C944E0E0C944E0E0C944E0E0C944E0ED0
:100040000C944E0E0C944E0E0C944E0E0C944E0EC0
:100050000C944E0E0C944E0E0C944E0E0C944E0EB0
:100060000C944E0E0C944E0E0C944E0E0C944E0EA0
:100070000C944E0E0C944E0E0C944E0E0C944E0E90
:100080000C944E0E0C944E0E0C944E0E0100010278
:10009000800011241FBECFEFD0E1DEBFCDBFECE862
:1000A000F0E040E017C0B591A591359125910591FB
:1000B00007FD0CC095918591EF01F92FE82F059070
:1000C0000D92A217B307D9F7FE0104C01D92A21723
:1000D000B307E1F7E139F40731F70E949E0B0C9466
:1000E000FF0DF894FFCF48656C6C6F20576F726CF2
:1000F000640044697374616E63653A20256420630B
:100100006D0068076C094C836A9074A07AC0008007
:10011000688800846C820081286E756C6C290028C8
:100120006E696C2900E39CE0215080409040E1F72B
:1001300000C000008CE782BB2FEF84E39CE02150DD
:1001400080409040E1F700C00000B2CF86B38D3F01
:10015000B9F489E382BB2FEF84E39CE02150804017
:100160009040E1F700C000008EE582BB2FEF84E3F2
:100170009CE0215080409040E1F700C0000098CF03
:1001800012BA96CF0C940000776974636865642096
:100190004F6666004C454432004C4544330046618E
:1001A0006E73004C4544312C204C454432004C4584
:1001B00044312C204C45443300416C6C204C454468
:1001C00073004C4544312C2046616E73004C45440D
:1001D000322C2046616E73004C4544332C2046611E
:1001E0006E73004C4544312C204C4544322C204643
:1001F000616E73004C4544322C204C4544332C2016
:1002000046616E73004C4544312C204C4544332CE0
:100210002046616E73005377697463686564204F8C
:10022000666620616C6C0046616E7320616E6420AE
:100230004C45447300F782B38E7F82BB0E945D0001
:100240002197F1F788E20E94BC0088E00E94BC0080
:100250000E94D00086E00E94BC00812F0E94BC005A
:10026000DF91CF911F91089580E487B987E886B91F
:10027000089583B7896683BF85B5896685BD8FEF8D
:100280008ABB1BBA87BB0895877097B1987F892B6B
:1002900087B986B1806486B93699FECF84B195B1AD
:1002A0000895CF93DF93CDB7DEB72A970FB6F894B2
:1002B000DEBF0FBECDBF0E9434010E9439018EE027
:1002C0000E94F8000E94D00060E080E00E94C6001A
:1002D0002FE788E391E0215080409040E1F700C093
:1002E000000080E00E944401BC0180E090E00E9498
:1002F000B30223E333E343E050E40E940B020E9485
:100300007D026B017C0160E080E00E94C60080E01D
:1003100091E00E94E9004AE050E0BE016F5F7F4F2C
:10032000C6010E944103CE0101960E94E90089E0C6
:1003300091E00E94E9002FE788E391E0215080409E
:100340009040E1F700C0000025E1C216D10460F43E
:100350001BBA11BE13BC61E080E00E94C6008FE0B2
:1003600091E00E94E900BDCFC60145970A9770F45D
:1003700085E08BBB8FEF81BF83BD61E080E00E9491
:10038000C6008EE191E00E94E900ABCFC6014F9715
:10039000449770F485E08BBB86E981BF83BD61E043
:1003A00080E00E94C6008EE191E00E94E90099CFB2
:1003B000C601C3974E9770F485E08BBB88EC81BF74
:1003C00083BD61E080E00E94C6008FE291E00E9460
:1003D000E90087CF81E5C81AD10896E4C916D1048F
:1003E00070F485E08BBB8FEF81BF83BD61E080E05F
:1003F0000E94C60080E491E00E94E90072CF1BBA1F
:1004000011BE13BC61E080E00E94C60081E591E06E
:100410000E94E90066CF0E941F020C9407030E940D
:10042000000358F00E94F90240F029F45F3F29F0E0
:100430000C94F00251110C943B030C94F6020E94B0
:10044000180368F39923B1F3552391F3951B550BCA
:10045000BB27AA2762177307840738F09F5F5F4F97
:10046000220F331F441FAA1FA9F335D00E2E3AF0D6
:10047000E0E832D091505040E695001CCAF72BD0EE
:10048000FE2F29D0660F771F881FBB1F261737073F
:100490004807AB07B0E809F0BB0B802DBF01FF2771
:1004A00093585F4F3AF09E3F510578F00C94F0025C
:1004B0000C943B035F3FE4F3983ED4F38695779525
:1004C0006795B795F7959F5FC9F7880F911D96952A
:1004D000879597F90895E1E0660F771F881FBB1F86
:1004E000621773078407BA0720F0621B730B840B33
:1004F000BA0BEE1F88F7E09508950E948402689475
:10050000B1110C943B0308950E94200388F09F577B
:1005100098F0B92F9927B751B0F0E1F0660F771F27
:10052000881F991F1AF0BA95C9F714C0B13091F01D
:100530000E943A03B1E008950C943A03672F782F94
:100540008827B85F39F0B93FCCF3869577956795E2
:10055000B395D9F73EF490958095709561957F4F4E
:100560008F4F9F4F0895E89409C097FB3EF49095F4
:100570008095709561957F4F8F4F9F4F9923A9F07C
:10058000F92F96E9BB279395F6958795779567950B
:10059000B795F111F8CFFAF4BB0F11F460FF1BC04F
:1005A0006F5F7F4F8F4F9F4F16C0882311F096E9E2
:1005B00011C0772321F09EE8872F762F05C0662390
:1005C00071F096E8862F70E060E02AF09A95660F49
:1005D000771F881FDAF7880F9695879597F9089502
:1005E00097F99F6780E870E060E008959FEF80ECE6
:1005F000089500240A941616170618060906089589
:1006000000240A9412161306140605060895092EEE
:100610000394000C11F4882352F0BB0F40F4BF2B5D
:1006200011F460FF04C06F5F7F4F8F4F9F4F08959D
:1006300057FD9058440F551F59F05F3F71F0479593
:10064000880F97FB991F61F09F3F79F08795089578
:10065000121613061406551FF2CF4695F1DF08C097
:10066000161617061806991FF1CF869571056105B4
:1006700008940895E894BB2766277727CB0197F95C
:1006800008954532510520F4423010F00C944C038B
:10069000FB011082CB010895BB274A3031F4992326
:1006A00022F4BDE2909581959F4F0C945803BB278F
:1006B000FB015527AA27880F991FAA1FA41710F01E
:1006C000A41B83955051B9F7A05DAA3308F0A95D2A
:1006D000A193009779F7B111B1931192CB010C94CA
:1006E0007103DC01FC01672F71917723E1F73297E9
:1006F00004C07C916D9370836291AE17BF07C8F3FD
:100700000895F894FFCF54656D7056616C3A0020DF
:1007100064656743004D6F746F7220312632204F3D
:10072000666620004D6F746F723126322046574442
:1007300031353020004D6F746F72312632204657AC
:100740004432303020004D6F746F723126322046B3
:1007500057443235352000756E6B6E6F776E200012
:100760004657443235352000756E6B6E6F776E20BC
:100770000000000000556E6B6E6F776E2000263211
:10078000204F666620004D6F746F7231263220460E
:10079000574431303020004D6F746F723126322053
:1007A00046574431353020004D6F746F7231263218
:1007B0002046574432303020004D6F746F7231261E
:1007C00032204657443235352000756E6B6E6F7798
:1007D0006E2000004D3120462026204D3220522030
:1007E000004D3120522026204D3220462000FFFFB0
:1007F000FFFFFFFFFFFFFFFFFFFFFFFFFFFFFFFF09
:00000001FF
