:100000000C9449000C948E140C948E140C948E1441
:100010000C948E140C948E140C948E140C948E14D8
:100020000C9455100C948E140C948E140C948E1405
:100030000C948E140C948E140C948E140C948E14B8
:100040000C948E140C948E140C948E140C948E14A8
:100050000C948E140C948E140C948E140C948E1498
:100060000C948E140C948E140C948E140C948E1488
:100070000C948E140C948E140C948E140C948E1478
:100080000C948E140C948E140C948E1401000104A4
:10009000800011241FBECFEFD0E1DEBFCDBFECE862
:1000A000F0E040E017C0B591A591359125910591FB
:1000B00007FD0CC095918591EF01F92FE82F059070
:1000C0000D92A217B307D9F7FE0104C01D92A21723
:1000D000B307E1F7E139F40731F70E9440050C94CA
:0600E000F513F894FFCFB8
:1000E60057656C636F6D6520486F6D652C004D61BB
:1000F600737465720048756D616E2064657465631E
:100106007465642E004175746F2053776974636853
:10011600204F6E00526F6F6D2054656D703A20252A
:100126006420430046616E2053706565643A20255D
:10013600642525004572726F7200496E76616C699E
:10014600642054656D70004E6F206F6E6520646587
:100156007465637465642C004175746F2053776908
:10016600746368206F66660053797374656D2052F8
:1001760065626F6F74004C6F6164696E672E2E2E18
:10018600004C454431005377697463686564204FB9
:100196006666004C454432004C4544330046616E69
:1001A60073004C4544312C204C454432004C4544A8
:1001B600312C204C45443300416C6C204C45447333
:1001C600004C4544312C2046616E73004C45443248
:1001D6002C2046616E73004C4544332C2046616EDC
:1001E60073004C4544312C204C4544322C2046614A
:1001F6006E73004C4544322C204C4544332C20462B
:10020600616E73004C4544312C204C4544332C2000
:1002160046616E73005377697463686564204F6640
:100226006620616C6C0046616E7320616E64204CC2
:0402360045447300C8
:10023A0068076C094C836A9074A07AC00080688849
:06024A0000846C820081BB
:07025000286E756C6C29009B
:06025700286E696C29000D
:10025E00A3EAB0E0E5E3F1E00C94C6124C015901BB
:10026E00C756DF4F488359836A83C959D040212C22
:10027E00312C6E012BE8C20ED11C85E2782E2601A0
:10028E0030E8632ECE018D569F4FC456DF4F9983B3
:10029E008883CC59D0409C0140E8CF55DF4F28834E
:1002AE0039834A83C15AD040C756DF4F4881C95956
:1002BE00D040C656DF4F5881CA59D040C556DF4F81
:1002CE006881CB59D040FA01849167FD80818823E3
:1002DE0009F4C9C3CF57DF4F19821882C158D040D5
:1002EE008FEF9FEFCD57DF4F99838883C358D04050
:1002FE00CB57DF4F19821882C558D040A1E0B0E02D
:10030E00AC0FBD1FC957DF4FB983A883C758D04064
:10031E00E0E8F0E0C757DF4FF983E883C958D040D3
:10032E00CA01A62FE12CF12CFC012491A7FD2081FE
:10033E0021111BC0E114F10401F19701C4010E94C7
:10034E000F11C756DF4F88819981AA81C959D040B4
:10035E008E0D9F1DA11DF7FCAA95C756DF4F8883F2
:10036E009983AA83C959D04008C00196A11D253290
:10037E0009F3FFEFEF1AFF0AD7CFC756DF4F888179
:10038E009981AA81C959D040FC012491A7FD2081F1
:10039E00253209F056C39C014A2F2F5F3F4F4F4F16
:1003AE00C256DF4F288339834A83CE59D040C75671
:1003BE00DF4F288339834A83C959D040C756DF4F50
:1003CE0088819981AA81C959D040FC012491A7FD49
:1003DE0020812B3241F4CF57DF4F28813981C1580C
:1003EE00D04024600BC02C32CCF02D3259F5CF57B3
:1003FE00DF4F28813981C158D0402160CF57DF4F60
:10040E0039832883C158D0400196A11DC756DF4FAE
:10041E0088839983AA83C959D040D0CF203241F422
:10042E00CF57DF4F28813981C158D0402860E6CFA1
:10043E00233291F4CF57DF4F28813981C158D040F4
:10044E002061DCCF203341F4CF57DF4F2881398133
:10045E00C158D0402260D2CF2A3299F50196A11D03
:10046E00C756DF4F88839983AA83C959D040D501D7
:10047E00ED91FC911197CF0102968D939C93808103
:10048E009181CB57DF4F99838883C558D04097FF12
:10049E003EC0CF57DF4F28813981C158D040B1E0DF
:1004AE002B27CF57DF4F39832883C158D0409195E2
:1004BE0081959109CB57DF4F99838883C558D040DA
:1004CE0026C0BC018A2F0E940D10CB57DF4F998397
:1004DE008883C558D040C756DF4F288139814A815D
:1004EE00C959D040F901849147FD8081082E000C36
:1004FE00990BC0970A9758F42F5F3F4F4F4FC7562F
:10050E00DF4F288339834A83C959D040E4CFCF5770
:10051E00DF4F88819981C158D04080FF07C08D7F01
:10052E00CF57DF4F99838883C158D040C756DF4FCE
:10053E0088819981AA81C959D040FC012491A7FDD7
:10054E0020812E3209F058C0CD57DF4F1982188204
:10055E00C358D0409C014A2F2F5F3F4F4F4FC75675
:10056E00DF4F288339834A83C959D040F90154910A
:10057E0047FD50815A32D1F40296A11DC756DF4F66
:10058E0088839983AA83C959D040D501ED91FC91F6
:10059E001197CF0102968D939C9380819181CD57B7
:1005AE00DF4F99838883C358D04026C0842FB9016A
:1005BE000E940D10CD57DF4F99838883C358D040CA
:1005CE00C756DF4F288139814A81C959D040F90178
:1005DE00849147FD8081082E000C990BC0970A97D5
:1005EE0058F42F5F3F4F4F4FC756DF4F2883398345
:1005FE004A83C959D040E4CFCE0187569F4F0E94FF
:10060E00750F182FC756DF4F2881C959D040C656CF
:10061E00DF4F8881CA59D040C556DF4F9881CB59DC
:10062E00D040E22FF82F849197FD8081082E000C88
:10063E00990B0E942E148936910509F45AC0B4F410
:10064E008336910509F466C144F48532910509F4A7
:10065E00A1C18136910529F1B3C18436910509F402
:10066E0048C0883691050CF42DC1AAC1803791057A
:10067E0009F4CBC04CF48E36910509F419C18F36AE
:10068E00910509F47CC09CC18537910509F454C0CD
:10069E008837910509F496C08337910509F090C10A
:1006AE0058C1612F70E0A501C6010E944E12892B20
:1006BE0009F4B7C1C756DF4F88819981AA81C959FC
:1006CE00D0409C014A2F2F5F3F4F4F4FC756DF4FF1
:1006DE00288339834A83C959D040FC012491A7FD50
:1006EE002081A601BE016F577F4FC4010E948B145B
:1006FE0095C1612F70E0950141E050E0C6010E9466
:10070E00930A892B09F48DC1C756DF4F88819981D1
:10071E00AA81C959D0400196A11DC756DF4F8883C3
:10072E009983AA83C959D040A601BE016F577F4F46
:10073E00C4010E94D40972C1612F70E0950140E09E
:10074E0050E0C6010E94930A892B09F46AC1C7566C
:10075E00DF4F88819981AA81C959D0400196A11D88
:10076E00C756DF4F88839983AA83C959D040A60103
:10077E00BE016F577F4FC4010E947A0E4FC1612F89
:10078E0070E0950140E050E0C6010E94930A892B6B
:10079E0009F447C1C756DF4F88819981AA81C9598B
:1007AE00D0400196A11DC756DF4F88839983AA8337
:1007BE00C959D040A601BE016F577F4FC4010E9498
:1007CE004E0D2CC1612F70E0950140E050E0C60146
:1007DE000E94930A892B09F424C1C756DF4F8881E2
:1007EE009981AA81C959D0409C014A2F2F5F3F4F52
:1007FE004F4FC756DF4F288339834A83C959D0409C
:10080E00FC012491A7FD20814BC0950140E050E0F2
:10081E0060EF70E0C6010E94930A892B09F401C1B2
:10082E00C756DF4F88819981AA81C959D040019658
:10083E00A11DC756DF4F88839983AA83C959D0401B
:10084E0086E027E532E040E0F901DE01AD56BF4F0C
:10085E00742F0E94C513D6012C9111963C911197BD
:10086E0012964C91129713965C91139714966C9165
:10087E00149715967C91159716968C911697179638
:10088E009C91A0E00E94DE1351F400E010E0CF55E1
:10089E00DF4F288139814A81C15AD040B9C028E73B
:1008AE00A601BE016F577F4FC4010E946007B6C0FC
:1008BE00612F70E09501A1014E0D5F1DC6010E94D2
:1008CE00780CAFC0612F70E0A501C6010E944E12D8
:1008DE00892B09F4A6C0C756DF4F88819981AA815A
:1008EE00C959D0409C014A2F2F5F3F4F4F4FC756DB
:1008FE00DF4F288339834A83C959D040FC012491A4
:10090E00A7FD2081A601BE016F577F4FC4010E9433
:10091E008B1484C0103809F084C0C756DF4F88810D
:10092E009981AA81C959D0400196A11DC756DF4FA2
:10093E0088839983AA83C959D040D501ED91FC9142
:10094E001197CF0102968D939C938081F60180833F
:10095E005BC0103809F065C0C756DF4F888199819A
:10096E00AA81C959D0400196A11DC756DF4F888371
:10097E009983AA83C959D040D501ED91FC91119765
:10098E00CF0103968D939C9320813181428100E0AB
:10099E0010E03EC0103809F044C0C756DF4F8881C2
:1009AE009981AA81C959D0400196A11DC756DF4F22
:1009BE0088839983AA83C959D040F601708224C0D6
:1009CE00D6017C92C256DF4F288139814A81CE5999
:1009DE00D040C756DF4F288339834A83C959D04048
:1009EE00CF57DF4F19821882C158D040CB57DF4FF7
:1009FE0019821882C558D0408FEF9FEFCD57DF4F29
:100A0E0099838883C358D04001E010E0462D9201AF
:100A1E00BE016F577F4FC4010E94B80D8E0D9F1DF2
:100A2E0011C0C756DF4F88819981AA81C959D0401C
:100A3E000196A11DC756DF4F88839983AA83C95992
:100A4E00D040C7017101E80EF91EE214F3044CF414
:100A5E008FE490E090930101809300018FEF9FEF60
:100A6E0003C0170121CCC101CD55DF4FE2E10C943B
:020A7E00E21282
:100A80000E946D140E94EA130E9436148CE00E94AA
:100A9000D3100E9480140E943D1417BA8FEF88BBB8
:100AA000789480E00E94B813BC01990F880B990BD1
:100AB0000E94981020E030E040E85AE30E9484143D
:100AC00020E030E04AEF53E40E9484146B017C0183
:100AD0000E9472118739910508F0E1C186B38E3FFB
:100AE000E9F48EE085BB85E08BBBC701B6010E94AF
:100AF000A0080E947C1460E080E00E940A1467E86D
:100B000071E080E00E94FD1261E080E00E940A1422
:100B10006CE871E080E00E94FD12C8C186B38D3F91
:100B2000E9F48DE085BB85E08BBBC701B6010E946F
:100B3000A0080E947C1460E080E00E940A1469E929
:100B400071E080E00E94FD1261E080E00E940A14E2
:100B50006CE871E080E00E94FD12A8C186B38B3F73
:100B6000E9F48BE085BB85E08BBBC701B6010E9431
:100B7000A0080E947C1460E080E00E940A146EE9E4
:100B800071E080E00E94FD1261E080E00E940A14A2
:100B90006CE871E080E00E94FD1288C186B3873F57
:100BA000F1F48FE085BB1BBAC701B6010E94A00813
:100BB0000E947C140E947C1460E080E00E940A1471
:100BC00063EA71E080E00E94FD1261E080E00E9433
:100BD0000A146CE871E080E00E94FD1267C186B3E0
:100BE0008C3FE9F48CE085BB85E08BBBC701B60187
:100BF0000E94A0080E947C1460E080E00E940A1419
:100C000068EA71E080E00E94FD1261E080E00E94ED
:100C10000A146CE871E080E00E94FD1247C186B3BF
:100C20008A3FE9F48AE085BB85E08BBBC701B6014A
:100C30000E94A0080E947C1460E080E00E940A14D8
:100C400063EB71E080E00E94FD1261E080E00E94B1
:100C50000A146CE871E080E00E94FD1227C186B39F
:100C6000893FE9F489E085BB85E08BBBC701B6010C
:100C70000E94A0080E947C1460E080E00E940A1498
:100C800063EB71E080E00E94FD1261E080E00E9471
:100C90000A146CE871E080E00E94FD1207C186B37F
:100CA000883FE9F488E085BB85E08BBBC701B601CE
:100CB0000E94A0080E947C1460E080E00E940A1458
:100CC0006CE871E080E00E94FD1261E080E00E942B
:100CD0000A146EEB71E080E00E94FD12E7C086B35B
:100CE000863FE1F48EE085BB1BBAC701B6010E94C6
:100CF000A0080E947C1460E080E00E940A146CE866
:100D000071E080E00E94FD1261E080E00E940A1420
:100D100067EC71E080E00E94FD12C8C086B3853F99
:100D2000E1F48DE085BB1BBA0E947C1460E080E09A
:100D30000E940A146CE871E080E00E94FD1261E0FC
:100D400080E00E940A1462ED71E080E00E94FD12D2
:100D5000C701B6010E94A008A9C086B3833FE1F491
:100D60008BE085BB1BBAC701B6010E94A0080E9498
:100D70007C1460E080E00E940A146CE871E080E07E
:100D80000E94FD1261E080E00E940A146DED71E0A6
:100D900080E00E94FD128AC086B3843FE1F48CE0BB
:100DA00085BB1BBAC701B6010E94A0080E947C1433
:100DB00060E080E00E940A146CE871E080E00E942C
:100DC000FD1261E080E00E940A1468EE71E080E0AC
:100DD0000E94FD126BC086B3813FE1F489E085BBC0
:100DE0001BBAC701B6010E94A0080E947C1460E0F3
:100DF00080E00E940A146CE871E080E00E94FD121D
:100E000061E080E00E940A1469EF71E080E00E94D6
:100E1000FD124CC086B3823FE1F48AE085BB1BBA69
:100E2000C701B6010E94A0080E947C1460E080E027
:100E30000E940A146CE871E080E00E94FD1261E0FB
:100E400080E00E940A146AE072E080E00E94FD12D5
:100E50002DC086B3803FE1F488E085BB1BBAC70193
:100E6000B6010E94A0080E947C1460E080E00E940D
:100E70000A146BE172E080E00E94FD1261E080E004
:100E80000E940A146CE272E080E00E94FD120EC023
:100E90000E944414C701B6010E94A00807C080E167
:100EA00085BB8BB3807F8BBB0E946E122FE986E8D7
:100EB00091E0215080409040E1F700C00000F1CD6A
:100EC000A4E1B0E0E6E6F7E00C94C61298878F83C1
:100ED0007A8369835C8B4B8B122FDB011296ED9129
:100EE000FC91139714962D913C9115973E832D8379
:100EF000ED90FC90119716962D903C901797F7FD6A
:100F000003C0E894E1F802C0E1E0F0E0C7018071BD
:100F100099279A878987E4FE1FC0AB89BC892C91E9
:100F200011963C91119712964C91129713965C91E1
:100F3000139714966C91149715967C9115971696A5
:100F40008C91169717969C91A0E00E94DE1321F0D9
:100F50008D819E81029702C08D819E8197012870AC
:100F600033273C872B87E3FC0197AB89BC894C90E6
:100F700011965C90119712966C90129713967C9034
:100F8000139714968C90149715969C901597169617
:100F9000AC9016971796BC90A981BA811896CD90FF
:100FA000DC901997B1E0CB1AD108D101AC0DBD1D71
:100FB0001C929C838B839F01281B390B3E872D87B6
:100FC000C70182709927988B8F87812F012E000C83
:100FD000990BDC01A154B109BA8BA98B32E0C3167D
:100FE000D10434F489859A85892B09F04CC073C0EB
:100FF0009201A301B401C501A0E00E94DE1381F1BA
:10100000B1E0CB1AD108C2018F7099278A309105BF
:1010100014F4C09602C0895A9F4FE989FA897A97D9
:1010200048F49C012062215631092A31310510F41F
:101030000E941D14F101EC0DFD1D80832B813C816C
:10104000215031093C832B839201A301B401C501D6
:1010500004E00E948E1229013A014B015C01BECFCF
:101060008D859E85AB81BC818A0F9B1F1816190642
:101070003CF21A161B060CF0B5CFEF85F889EF2B62
:1010800009F0BECFAFCFAB89BC892C9111963C91B2
:10109000119712964C91129713965C911397149690
:1010A0006C91149715967C91159716968C911697BE
:1010B00017969C91A0E00E94DE1369F0F101EC0DFF
:1010C000FD1D31971083B2E0CB1AD108F101EC0D70
:1010D000FD1D80E38083EB85FC85EF2B41F0F1E083
:1010E000CF1AD108F101EC0DFD1D80E28083A981AA
:1010F000BA8118962D913C911997215031092C19DC
:101100003D09C20CD31CA60160E80D811E818F81B0
:1011100098850E94F10B9C01EF81F8858081918177
:1011200090FF09C0A981BA8112968D919C91139765
:10113000821793070CF4C9016496E2E10C94E21261
:10114000CF92DF92EF92FF926B017C0186B3873FD3
:1011500009F418C186B3863F09F414C186B3853FEC
:1011600009F410C186B3833F09F40CC186B3843FF0
:1011700009F408C186B3813F09F404C186B3823FF4
:1011800009F400C186B3803F09F4FCC020E030E0E0
:1011900040EC51E4C701B6010E9472141816ACF07D
:1011A0001BBA11BE13BC10920301109202018FE40E
:1011B00093EC0197F1F700C00000C701B6010E944F
:1011C0004B14CB010E941D0EEAC020E030E040EC41
:1011D00051E4C701B6010E94771488231CF120E076
:1011E00030E040EF51E4C701B6010E9472141816B6
:1011F000CCF085E08BBB84E681BF83BD89E190E0C4
:1012000090930301809302018FE493EC0197F1F72F
:1012100000C00000C701B6010E944B14CB010E9420
:101220001D0EBDC020E030E040EF51E4C701B60123
:101230000E94771488231CF120E030E04CE052E457
:10124000C701B6010E9472141816CCF085E08BBB62
:101250008BE981BF83BD82E390E09093030180938B
:1012600002018FE493EC0197F1F700C00000C70181
:10127000B6010E944B14CB010E941D0E90C020E0CD
:1012800030E04CE052E4C701B6010E947714882395
:101290001CF120E030E040E252E4C701B6010E94B8
:1012A00072141816CCF085E08BBB88EC81BF83BD2F
:1012B0008BE490E090930301809302018FE493EC20
:1012C0000197F1F700C00000C701B6010E944B145E
:1012D000CB010E941D0E63C020E030E044E252E4E6
:1012E000C701B6010E94771488231CF120E030E08A
:1012F00048E452E4C701B6010E9472141816CCF0FB
:1013000085E08BBB8FEF81BF83BD84E690E0909337
:101310000301809302018FE493EC0197F1F700C081
:101320000000C701B6010E944B14CB010E941D0EA4
:1013300036C01BBA11BE13BC1092030110920201F9
:101340000E947C1460E080E00E940A146AE371E06D
:1013500080E00E94FD1261E080E00E940A1460E4D7
:1013600071E080E00E94FD128FE493EC0197F1F7A9
:1013700000C00000C701B6010E944B14CB010E94BF
:101380001D0E0DC08FE493EC0197F1F700C0000033
:10139000C701B6010E944B14CB010E941D0EFF90A5
:0813A000EF90DF90CF9008955B
:1013A800ADE0B0E0EAEDF9E00C94C6129A878987BF
:1013B8007C836B83FA01DB011296CD90DC90139746
:1013C80014968D919C9115979E838D83ED90FC903A
:1013D8001197FA82E98216960D90BC91A02DB887D4
:1013E800AF832080318042805380648075808680FE
:1013F80097808101B42DF52DE62D7B868C869D8600
:101408009101A201B301C401A0E00E94DE134CF4D3
:101418000E947E138901B42FF52FE62F7B878C87D6
:101428009D87D7FC04C0E894E1F8FA82E98291012B
:10143800A201B301C401A0E0ED80FE800E94DE138A
:101448001CF0898182FF04C081E0E81AF10805C018
:1014580083FF03C091E0E91AF108CE0101965C010F
:101468008AE0C82ED12C2B2F3F2F4E2F5B856C8501
:101478007D858B819C810E944C0BFC019101A2010E
:10148800B301C401A0E00E94DE131CF0898182FF31
:1014980012C031970F8118850E0F1F1F9101A201ED
:1014A800B301C401A0E00E94DE1314F08BE201C076
:1014B8008DE2D80108C083FF07C03197AF81B88596
:1014C800AE0FBF1F80E28C93E980FA80AB81BC81AC
:1014D80018962D913C911997215031092E1B3F0BDD
:1014E8008F819885E80FF91FAF0160E80D811E8193
:1014F80089859A850E94F10B9C01A985BA858D91F1
:101508009C9190FF07C0EB81FC81828193818217B7
:0E15180093070CF4C9012D96E2E10C94E21247
:101526000F931F93CF93DF93FC01D90168387105A0
:1015360031F194F461387105B1F12CF4603871051C
:1015460009F478C09FC06238710509F459C064383F
:10155600710509F46FC096C0603A710509F448C078
:101566002CF46039710509F44BC08CC0603C7105E0
:1015760009F476C0603F710509F472C083C0CD914D
:10158600DC911197CE0102968D939C93452B39F0F1
:101596009881892F880F880B908381835BC088810F
:1015A6008083118268C0CD91DC911197CE0104969B
:1015B6008D939C93452B99F088819981AA81BB8153
:1015C600AC01BD01770F440B542FBA018083918380
:1015D600A283B383448345834683478328C0088117
:1015E60019812A813B81008311832283338345C07D
:1015F600CD91DC911197CE0102968D939C9323C0D9
:10160600CD91DC911197CE0108968D939C937881AC
:1016160069815A814B813C812D819E818F817083A6
:10162600618352834383348325839683878381E052
:1016360090E02AC0CD91DC911197CE0102968D9350
:101646009C93452BA1F099812881892F880F880BBF
:101656002083918382838383848385838683E6CFF5
:10166600CD91DC911197CE0102968D939C930881C2
:1016760019810083118312821382148215821682C5
:101686001782D5CF80E090E0DF91CF911F910F9127
:021696000895B5
:10169800A2E1B0E0E2E5FBE00C94C612FC010A8B83
:1016A8001B832C83732E642E552E462E7D83CC8669
:1016B800D886BF82AE82868197819B878A87D5012B
:1016C8004D915C91228133818085918501971C0120
:1016D80037FF02C021E030E0EA85FB85E80FF91FFB
:1016E80010824701E1E0F0E0FA83E983C9018E192D
:1016F8009F099E878D87DA01A270BB27B88BAF87B9
:10170800B885BB0FBB0BB98B1214130474F0A981F5
:10171800BA81AB2B09F05CC0AE81BF818D919C91E1
:1017280011978F7E8D939C9353C02A893B814C815E
:10173800572D662D752D842D9D81A0E00E94DE1306
:10174800B1F1E1E02E1A3108FC85F987AF2EB88493
:10175800C988DC2CEC2CFC2C0C2D1C2D2A893B81F7
:101768004C81572D662D752D842D9D810E949D13CA
:10177800C90129839A83EA85FB85E20DF31D805D03
:10178800808381E0881A91082A893B814C81572DF2
:10179800662D752D842D9D810E949F132A8B3B8376
:1017A8004C83752E662E572E482E9D83ADCF8D8582
:1017B8009E85880D991D181619061CF2181419040F
:1017C8000CF0A5CFEF85F889EF2B09F0BACF9FCFA2
:0A17D800C1016296E2E10C94E212F6
:1017E2002F923F924F926F927F928F92AF92BF92BF
:1017F200CF92DF92EF92FF920F931F93CF93DF93DB
:10180200CDB7DEB766970FB6F894DEBF0FBECDBF79
:101812005C013A01862E6901C701817099279C8B70
:101822008B8BE0FC1DC020173107D4F47801EC1833
:10183200FD08FE8AED8AA70191E1E916F10410F094
:1018420040E150E060E270E0CE0101969A8B898B14
:101852000E94141489899A891C0120E8422E0BC027
:101862009601682DA301C5010E940F11C016D10671
:10187200ECF2C60125C090E1E916F10458F020E12E
:1018820030E0642DA101C5010E940F1180E1E81A28
:10189200F108F1CF2D893E892F70332789899A89E2
:1018A200AC0160E8C5010E940F118B899C89892BCC
:1018B20031F49601682DA301C5010E940F11C801E0
:1018C20066960FB6F894DEBF0FBECDBFDF91CF9103
:1018D2001F910F91FF90EF90DF90CF90BF90AF904C
:0E18E2008F907F906F904F903F902F900895C1
:1018F000CF93DF93DC01F90164387105D9F164F409
:101900006138710521F16238710509F440C0603811
:10191000710509F054C02EC060397105C1F184F41D
:101920006838710509F04BC0C081D181CE010296A3
:1019300091838083E881F981ED93FC9340833CC0DF
:10194000603A7105B9F0603C7105A1F038C0C08102
:10195000D181CE01029691838083E881F981ED9354
:10196000FC93052E000C660B770B4083518362833A
:10197000738322C0C081D181CE010296918380837E
:10198000E881F981ED93FC935183408315C0C081B8
:10199000D181CE01029691838083E881F981ED9314
:1019A000FC9351834083852F880F880B8283838328
:1019B000848385838683878381E090E002C080E012
:0819C00090E0DF91CF91089542
:1019C8000FC00E94591438F00E94601420F095232B
:1019D80011F00C9467140C94881411240C9453146B
:1019E8000E940C1270F3959FC1F3950F50E0551F9C
:1019F800629FF001729FBB27F00DB11D639FAA275C
:101A0800F00DB11DAA1F649F6627B00DA11D661FAA
:101A1800829F2227B00DA11D621F739FB00DA11DCB
:101A2800621F839FA00D611D221F749F3327A00D85
:101A3800611D231F849F600D211D822F762F6A2F21
:101A480011249F5750409AF0F1F088234AF0EE0F86
:101A5800FF1FBB1F661F771F881F91505040A9F7B3
:101A68009E3F510580F00C9467140C9453145F3F0B
:101A7800E4F3983ED4F3869577956795B795F795EF
:101A8800E7959F5FC1F7FE2B880F911D9695879567
:041A980097F908951D
:101A9C00A2E0B0E0E4E5FDE00C94C6121C014B01A1
:101AAC00FA01DB0112962D913C91139714964D90EF
:101ABC005C9015978D919C9111979A8389831696BA
:101ACC006D907C90179737FD03C08D7F9A83898327
:101ADC000081118122813381448155816681778116
:101AEC00FE0131965F0188E0C82ED12C7201C40131
:101AFC000E944C0B298124FF06C00197F301E80FCB
:101B0C00F91F20E32083298123FF06C00197F301ED
:101B1C00E80FF91F20E22083E980FA80D40118969F
:101B2C002D913C91199721503109281B390B860DA9
:101B3C00971DAC0160E88201C1010E94F10B9C0170
:101B4C00F1018081918190FF08C0D40112968D9192
:101B5C009C911397821793070CF4C9012296E2E12A
:041B6C000C94E212E1
:101B70002F923F924F926F927F928F92AF92BF922D
:101B8000CF92DF92EF92FF920F931F93CF93DF9349
:101B9000CDB7DEB727970FB6F894DEBF0FBECDBF27
:101BA0006C017B013901842E980180E5282E82E0AA
:101BB000382E80E0482E87E0F101AE014F5F5F4F85
:101BC000DA01742D0E94C513F70102811381A480EC
:101BD000B580E080F18061147104810419F43A0148
:101BE000F0E88F2E2115310529F4882DB3010E94CC
:101BF0002F139C0117FD04C00217130708F4980166
:101C00008501682DA301C6010E94F10B27960FB62E
:101C1000F894DEBF0FBECDBFDF91CF911F910F9122
:101C2000FF90EF90DF90CF90BF90AF908F907F901C
:0A1C30006F904F903F902F900895A1
:101C3A00CF92DF92EF920F931F93CF93DF93CDB79B
:101C4A00DEB760970FB6F894DEBF0FBECDBF182F70
:101C5A00092F0E947C140F931F938AE191E0A0E060
:101C6A00AF939F938F938E010F5F1F4F1F930F9315
:101C7A000E945A13680120E8E22E8E2DB6010E94B6
:101C8A00FD1261E080E00E940A14809102019091A5
:101C9A0003019F938F938AE291E0A0E0AF939F9311
:101CAA008F931F930F930E945A138E2DB6010E9491
:101CBA00FD128FE996E821E0815090402040E1F73B
:101CCA0000C000000FB6F894DEBF0FBECDBF60960D
:101CDA000FB6F894DEBF0FBECDBFDF91CF911F9133
:0A1CEA000F91EF90DF90CF90089566
:101CF400A2E0B0E0E0E8FEE00C94C6123C014B0127
:101D0400FA01DB0112962D913C91139714964D9094
:101D14005C9015978D919C9111979A83898316965F
:101D24002D903C90179737FD03C08D7F9A8389834C
:101D340000811181228133814481558166817781BB
:101D4400FE0131965F018AE0C82ED12C7201C401D4
:101D54000E944C0BE980FA80D40118962D913C9195
:101D6400199721503109281B390B820D931DAC01A1
:101D740060E88201C3010E94F10B9C01F3018081A0
:101D8400918190FF08C0D40112968D919C91139774
:101D9400821793070CF4C9012296E2E10C94E21233
:101DA4006F927F928F92EF92FF920F931F93CF9334
:101DB400DF93CDB7DEB761970FB6F894DEBF0FBEE1
:101DC400CDBFFE01319651E1DF011D925A95E9F72D
:101DD400A2E0B1E0BA83A9839C838B8377FF09C017
:101DE4008FE490E090930101809300018FEF9FEFC7
:101DF40019C03901842E7C01615071097F836E837F
:101E04009801682DA301CF010E94171348855985B5
:101E14002E813F814217530708F49A01F701E20F1C
:101E2400F31F108261960FB6F894DEBF0FBECDBFCC
:101E3400DF91CF911F910F91FF90EF908F907F9042
:041E44006F900895FE
:101E480088249924F401E401B0E49F93AA279A1501
:101E58008B049C04ED05FE05CF05D007A10798F477
:101E6800AD2FDC2FCF2FFE2FE92D982C892E982F00
:101E7800872F762F652F542F432F322F2227B850C4
:101E880031F7BF9127C01B2EBF91BB27220F331FED
:101E9800441F551F661F771F881F991F881C991C90
:101EA800EE1FFF1FCC1FDD1FAA1FBB1F8A149B0438
:101EB800EC05FD05CE05DF05A007B10748F08A1837
:101EC8009B08EC09FD09CE09DF09A00BB10B2160C5
:101ED8001A94E1F62EF49401AF01BE01CD01000C75
:021EE80008955B
:101EEA00CF92DF92EF92DC0190E0292F30E0220FAF
:101EFA00331F6901032E000CEE086E2DA601465C05
:101F0A005D4F6F4F6A01E62EFA018491E7FC8081EA
:101F1A0081110DC02F5F3F4F032E000C440B265C2E
:101F2A003D4F4F4FF901849147FD808124C0CD90E8
:101F3A00DD90EC901297F6014491E7FC40818413FE
:101F4A0015C02F5F3F4F032E000C440B265C3D4FFC
:101F5A004F4FF901949147FD90815FEFC51AD50A59
:101F6A00E50ACD92DD92EC92129701C09F5F9B30F9
:0E1F7A0008F4BBCF892FEF90DF90CF90089531
:101F88000F931F93CF93DF93DB012D913C91119712
:101F980030FF25C017964D915C91189715962D9195
:101FA8003C9116974217530778F41296ED91FC91DD
:101FB8001397808312962D913C9113972F5F3F4F73
:101FC80013963C932E93129717962D913C91189740
:101FD8002F5F3F4F18963C932E93179715C01D9669
:101FE800ED91FC911E97309719F48FEF9FEF0CC07D
:101FF8008B01EC010995892BC1F7F8018781908540
:10200800019690878783CE01DF91CF911F910F9121
:02201800089529
:10201A00CF939B01482FF901849147FD808180323B
:10202A00C9F1682F082E000C770B695071096530C9
:10203A00710580F18B3249F5A0E0B0E02F5F3F4F88
:10204A004F4F02C0A0E0B0E080E090E0CAE0F901A2
:10205A00649147FD6081062E000C770B605371096D
:10206A006A30710560F4C89FF001C99FF00D112410
:10207A002F5F3F4F4F4FCF01861B970BE8CFAB2BFC
:10208A0069F491958195910909C08D32D9F6A1E03B
:10209A00B0E0D4CF2F5F3F4F4F4FBDCFCF910895C0
:1020AA001F920F920FB60F9211242F933F934F93C3
:1020BA005F936F937F938F939F93AF93BF93EF93A6
:1020CA00FF930E947C1460E080E00E940A146EE68E
:1020DA0071E080E00E94FD1261E080E00E940A1433
:1020EA006CE771E080E00E94FD1215BA1BBA2FE777
:1020FA008AE196E0215080409040E1F700C000005C
:10210A00FF91EF91BF91AF919F918F917F916F91C5
:10211A005F914F913F912F910F900FBE0F901F909B
:02212A00189506
:10212C00E89409C097FB3EF4909580957095619565
:10213C007F4F8F4F9F4F9923A9F0F92F96E9BB271B
:10214C009395F695879577956795B795F111F8CF97
:10215C00FAF4BB0F11F460FF1BC06F5F7F4F8F4F02
:10216C009F4F16C0882311F096E911C0772321F0F8
:10217C009EE8872F762F05C0662371F096E8862F90
:10218C0070E060E02AF09A95660F771F881FDAF7E7
:0A219C00880F9695879597F908952E
:1021A6001F93CF93DF93182F81B38F6781BB80E096
:1021B6009AEF0197F1F782B3826082BB82B38160A6
:1021C60082BB0E94261480E09EE40197F1F70E94EC
:1021D6002614C0E0D1E0CE010197F1F70E94261443
:1021E600CE010197F1F782B38E7F82BB0E9426143F
:1021F6002197F1F788E20E94001488E00E940014FB
:102206000E947C1486E00E940014812F0E94001414
:08221600DF91CF911F910895A3
:10221E006F927F928F92CF92DF92EF920F931F93D6
:10222E00CF93DF938C016A01E62EE9013A01862EE7
:10223E00620E731E811C37FD8A94C614D704E804FF
:10224E0079F0F6018491E7FC8081B801082E000C2C
:10225E00990B0E94C40F8FEFC81AD80AE80AEDCF67
:10226E00CE01DF91CF911F910F91EF90DF90CF9024
:08227E008F907F906F9008958E
:102286000E94141288F09F5798F0B92F9927B751DA
:10229600B0F0E1F0660F771F881F991F1AF0BA9504
:1022A600C9F714C0B13091F00E945214B1E00895FC
:1022B6000C945214672F782F8827B85F39F0B93FEE
:1022C600CCF3869577956795B395D9F73EF49095B7
:0E22D6008095709561957F4F8F4F9F4F0895B3
:1022E4008BB380648BBB83E08A95F1F700008BB3DA
:1022F4008F7B8BBBCF9BFECF80E090E002C001962A
:102304000000CF99FCCF9C01220F331F880F991F27
:10231400880F991F880F991F280F391FABEABAEA53
:102324000E948E130024880F991F001C880F991F88
:08233400001C892F902D089573
:10233C00CF93DF93D82F662321F082B3806182BBC9
:10234C0003C082B38F7E82BB82B38F7D82BB81B38D
:10235C008F6081BBC2B3C07F8D2F82958F708C2B09
:10236C0082BB0E942614DF70DC2BD2BB0E94261489
:0A237C00CF60C2BBDF91CF9108953E
:10238600882321F082B3806182BB03C082B38F7E33
:1023960082BB82B3806282BB81B3807F81BB82B302
:1023A600806482BB00C090B39295907F82B38F7B8E
:1023B60082BB00C082B3806482BB00C080B38F70D2
:0A23C60022B32F7B22BB892B089560
:1023D000990F0008550FAA0BE0E8FEEF1616170636
:1023E000E807F907C0F012161306E407F50798F09E
:1023F000621B730B840B950B39F40A2661F0232BB7
:10240000242B252B21F408950A2609F4A140A69532
:082410008FEF811D811D08956D
:1024180057FD9058440F551F59F05F3F71F047958D
:10242800880F97FB991F61F09F3F79F08795089572
:10243800121613061406551FF2CF4695F1DF08C091
:10244800161617061806991FF1CF869571056105AE
:042458000894089547
:10245C000E947C1460E080E00E940A1466EE70E03A
:10246C0080E00E94FD1261E080E00E940A1464EF9B
:10247C0070E080E00E94FD122FEF80E792E0215087
:10248C0080409040E1F700C000000E947C14089549
:10249C00FA0160387105CCF0623871051CF06338B4
:1024AC00710599F4A081B1819D012C5F3F4F31835F
:1024BC0020834D915D916D917C91FC014083518302
:1024CC006283738381E090E0089580E090E008954A
:1024DC000E947C1460E080E00E940A146DE471E0BC
:1024EC0080E00E94FD1261E080E00E940A146EE51B
:1024FC0071E080E00E94FD122FE986E891E0215006
:0C250C0080409040E1F700C000000895FE
:1025180097FB10F8169400080F93083098F00850AD
:10252800232F342F452F562F672F782F892F902D43
:10253800F4CF05949795879577956795579547951F
:0C254800379527950A95AAF70F91089582
:1025540060E080E00E940A146BEF70E080E00E946B
:10256400FD1261E080E00E940A146BE071E080E0FB
:102574000E94FD122FE38DE093E0215080409040B3
:08258400E1F700C0000008951A
:10258C002F923F924F925F926F927F928F929F9277
:10259C00AF92BF92CF92DF92EF92FF920F931F9365
:1025AC00CF93DF93CDB7DEB7CA1BDB0B0FB6F89416
:0825BC00DEBF0FBECDBF099484
:1025C4002A88398848885F846E847D848C849B84BF
:1025D400AA84B984C884DF80EE80FD800C811B81CD
:1025E400AA81B981CE0FD11D0FB6F894DEBF0FBEFC
:0625F400CDBFED010895CA
:1025FA00CF92DF92EF92A82FCB0104C00E9445131D
:10260A00AE2DC6016C01EA2E2FEFC21AD20AE20AD7
:10261A00FC018491A7FD80818111F0CFEF90DF90BA
:04262A00CF900895B0
:10262E00A2E0B0E0EDE1F3E10C94D4128C013A8318
:10263E0029839E012F5F3F4F0E942F01F8012081B9
:10264E0024FF02C08FEF9FEF2296E4E00C94F0126D
:10265E00CF92DF92EF926B01E82EA82FCB01FC01F7
:10266E002491A7FD2081222319F00196A11DF7CFF9
:0C267E008C199D09EF90DF90CF9008951B
:10268A00CF93C82F0E94AB13CA3049F4803410F498
:10269A0080E401C080E080580E94001404C061E018
:0A26AA008C2F0E949E11CF9108951D
:1026B400A0E0B0E0E0E6F3E10C94D6129E01265FC0
:1026C4003F4F4F81588569858D819E810E94D21329
:0626D400E2E00C94F2129A
:1026DA00092E0394000C11F4882352F0BB0F40F426
:1026EA00BF2B11F460FF04C06F5F7F4F8F4F9F4F66
:0226FA00089541
:1026FC006095709580959095309540955095219565
:10270C003F4F4F4F5F4F6F4F7F4F8F4F9F4F0895EE
:10271C00A29FB001B39FC001A39F700D811D112416
:0E272C00911DB29F700D811D1124911D089505
:10273A00689401C0E8948F929F92CF93DF930E948E
:0C274A00240FDF91CF919F908F90089595
:1027560080E00E94C3118823DCF388E090E00197B3
:0A276600F1F780E00E94C31108950E
:1027700097B1987F8770892B87B986B1806486B9B5
:0A2780003699FECF84B195B108959B
:10278A00992777FD05C005900D920197E1F7089505
:0A279A0001900D920197E1F70895F8
:1027A4000F931F9389019A01462F6FEF7FE70E94D1
:0827B400D20E1F910F91089550
:1027BC000024A7FD00942A1730054005500560053C
:0827CC007005800590050895D9
:1027D40083B7896683BF85B5896685BD8FEF8ABB5C
:0627E4001BBA87BB08953B
:1027EA00EC010E9493140E949214CE010E94941448
:0627FA00CE010E949014C4
:10280000CF93C82F0E94AB1360E08C2F0E949E11C3
:04281000CF910895C7
:10281400611104C080580E940014089580540E94DD
:0428240000140895FF
:10282800FC01480F591FE417F50711F06193FBCF1E
:02283800089501
:10283A009C01215631092A31310510F48F759927E7
:02284A000895EF
:10284C0082B3806482BB00C082B38F7B82BB08954D
:10285C009C01215431092A31310508F48062089514
:0E286C008AB380648ABB8AB38F778ABB0895D3
:0E287A008AB7806C8ABF89B7806889BF0895CD
:0E2888000E942E128FE085BB0E94AA120895B6
:0E2896000E9443116894B1110C9453140895DC
:0E28A400E894BB2766277727CB0197F90895A4
:0E28B20000240A941616170618060906089543
:0E28C00000240A941216130614060506089545
:0C28CE0097F99F6780E870E060E00895D3
:0A28DA0080E487B987E886B9089505
:0A28E4000E94E81108F481E0089555
:0A28EE000E94E81108F48FEF08952E
:0828F80081E00E940014089524
:082900008FE184BB15BA0895B4
:082908000E94E40C0C946D1315
:062910009FEF80EC08952A
:0629160080E090E008954E
:04291C000C94000017
:042920000E947100A0
:02292400089514
:02292600089512
:02292800089510
:00000001FF
